:020000040800F2
:10000000B82D00201D120008450E00082712000818
:10001000470E00084B0E00084F0E000800000000BD
:10002000000000000000000000000000530E000867
:10003000550E000800000000570E0008590E000879
:10004000371200083712000837120008371200086C
:100050003712000837120008371200081D0C00087C
:100060003B0C00085D0C00086B0C0008290E000812
:10007000371200083712000837120008371200083C
:100080003712000837120008371200085B0E00080C
:10009000630E0008371200083712000837120008F4
:1000A000371200083712000837120008371200080C
:1000B00037120008FB480008371200083712000802
:1000C00037120008371200083712000837120008EC
:1000D00037120008FF110008371200083712000815
:1000E00037120008371200083712000837120008CC
:1000F0003712000837120008FF49000837120008BD
:1001000037120008371200083712000837120008AB
:10011000371200083712000837120008371200089B
:10012000371200083712000837120008371200088B
:10013000DFF80CD007F0C4FF004800477F09000833
:10014000B82D002008B54CF218604FF4C373E622B6
:1001500005210090084604F021F94AF2516040F26E
:100160008513E52206210090084604F017F94CF2A9
:1001700018602923E62219460090052004F0B8F8FB
:1001800000200090FD480388FDA22A210A2004F0E7
:100190006CFA00200090F9480388FBA23B2146201E
:1001A00004F063FA00200090F4480388F8A24D217F
:1001B000462004F05AFA00200090F0480388F6A286
:1001C0003B21822004F051FA00200090EB48038884
:1001D000F3A24D21822004F048FA4CF218605F230C
:1001E000E62219460090052004F082F800200090D5
:1001F000E2480388ECA260210A2004F036FA0020CD
:100200000090DE480388EAA27121462004F02DFA0E
:1002100000200090D9480388E7A28321462004F0FB
:1002200024FA00200090D5480388E5A295214620B5
:1002300004F01BFA00200090D0480388E2A271214C
:10024000822004F012FA00200090CC480388DEA23D
:100250008321822004F009FA00200090C748038817
:10026000D9A29521822004F000FA4CF21860A7234D
:10027000E62219460090052004F03AF8002000908C
:10028000BE480388D1A2A8210A2004F0EEF900207C
:100290000090BA480388CEA2B9210A2004F0E5F9FB
:1002A00000200090B5480388CBA2CB210A2004F09F
:1002B000DCF900200090B1480388C9A2DD210A20A2
:1002C00004F0D3F900200090AC480388C6A2B921FD
:1002D000322004F0CAF900200090A8480388C4A284
:1002E000CB21322004F0C1F900200090A3480388FC
:1002F000BFA2DD21322004F0B8F9002000909F4811
:100300000388BDA2B9216E2004F0AFF9002000904F
:100310009A480388BAA2CB216E2004F0A6F90020E7
:10032000009096480388B8A2DD216E2004F09DF964
:100330000020009091480388B5A2B921962004F0CE
:1003400094F9002000908D480388A9A2CB21962023
:1003500004F08BF90020009088480388A4A2DD21D6
:10036000962004F082F94CF21860EF23E622194639
:100370000090052003F0BCFF08BD38B505460C46CB
:100380004DB9002000907D48038883A23B21822044
:1003900004F06BF955E0012D35D10020009077482D
:1003A00003889DA23B21822004F05FF94CB9002014
:1003B00000907248038878A24D21822004F055F9FC
:1003C0003FE0012C09D1002000906C4803886CA20A
:1003D0004D21822004F049F933E0022C09D100209C
:1003E0000090664803888DA24D21822004F03DF9DB
:1003F00027E000200090614803888BA24D218220D5
:1004000004F033F91DE0022D12D1002000905B486A
:10041000038887A23B21822004F027F90020009066
:10042000564803885EA24D21822004F01EF908E0A0
:1004300000200090514803887BA23B21822004F0D9
:1004400014F938BDFEB507460D463E4609240DE0B9
:100450000A20B6FBF0F100FB116030300DF804000B
:100460000A20B6FBF0F606B902E0641E002CEFDAB3
:1004700000BFC4F10A020DEB0401284607F0DCFDC1
:100480000020C4F10A016854C4F10A00C0B2FEBDE4
:100490007FB505460C46164601A92846FFF7D2FF50
:1004A000002000903548038801AA7121822004F0C1
:1004B000DCF801A92046FFF7C5FF002000902F4877
:1004C000038801AA8321822004F0CFF801A92046E5
:1004D000FFF7B8FF002000902848038801AA952163
:1004E000822004F0C2F87FBD1FB5044601A9204652
:1004F000FFF7A8FF002000902048038801AA71217F
:10050000822004F0B2F81FBD1FB5044601A92046A1
:10051000FFF798FF002000901848038801AA832164
:10052000822004F0A2F81FBD1FB5044601A9204691
:10053000FFF788FF002000901048038801AA95214A
:10054000822004F092F81FBD3EB5044601A9204662
:10055000FFF778FF002000900848038835A2B921F2
:10056000322004F082F8002000900448038801AA99
:10057000B921322004F079F83EBD0000340000209B
:10058000436F6E6E656374005479706520203A0085
:100590005374617475653A004E6F6E65000000001B
:1005A000556E6B6E6F77000044617461000000004F
:1005B0004765742020203A005361766520203A0078
:1005C00053656E6420203A003000000050696E00D0
:1005D0005643433A000000005253543A00000000D2
:1005E000474E443A000000002D2D2D2D6D76000061
:1005F000585858586D760000434C4B3A00000000A4
:10060000492F4F3A000000005644443A00000000D1
:100610002D2D2D2D6B687A00555342004469636F70
:100620006E656374000000004F746865720000001E
:10063000434F4D00202020200000000010B504F0A2
:10064000D5FB002004F0B0FB4FF47840EE49088061
:10065000F420EE4908800A20ED490880FFF772FD7A
:1006600010BD38B5044600200090E74803882246B4
:10067000E64801880A2003F0F8FFE44800881030BB
:10068000E249088008460088B0F5BB7F01DBF42012
:10069000088038BD13B58AB00C462022DD4902A877
:1006A00007F0CAFCDA4800880A280AD10020009026
:1006B000D548038802AAD5480188D548008803F0A8
:1006C000D4FF0A980A280ED1D1490880CF48008863
:1006D0001030CE49088008460088B0F5BB7F12DB99
:1006E000F42008800FE000200090C74803880AAA81
:1006F000C6480188C648008803F0B7FFC448008890
:100700000830C34908800A980CB010BD10B50446E3
:100710000121042001F01EF93CB1BF48006880B2FD
:1007200020F00200BC49086014E0BB48006880B2B9
:1007300040F00200B8490860B848006820F47F2003
:10074000B64908600846006840F44C300860002054
:10075000B349086010BD10B5482000F093FC4FF479
:10076000A06000F06DFDFFF769FFAEA0FFF779FF15
:1007700004F066F9ADA0FFF774FF00F095FAADA0A4
:10078000FFF76FFF05F00DFB10B1ADA0FFF769FF9C
:10079000AFA0FFF766FF05F015F9B0A007F0ECFC7D
:1007A00003F0B2FF03F0F2FF642000F0A9FC002088
:1007B000FFF7ACFF4FF42F7000F0A2FC0120FFF711
:1007C000A5FF05F030FD05F023FD06F007FE012131
:1007D0000846FFF7D2FDA6A007F0CEFC10BD002012
:1007E000A7490860A7490860A7490860A749088089
:1007F000A7490880A7490880A7490880704770B5B5
:1008000006460D461446402C00D94024224629466F
:10081000012005F0E5FFC0B270BD70B598480568CD
:100820000026012007F06CF8202801D0012070BDBF
:10083000944800682C1A402C00D940242246914844
:100840000168964805F03DF9224694490120FFF7DA
:10085000D6FF06468B48006830448A49086000206D
:10086000E5E770B505460026012007F049F8202885
:1008700001D0012070BD83480088C0F3080030B16A
:100880008048007800F03F0008B9012D08D17D486C
:100890000068142202EB50210122804805F04BFB36
:1008A00078480088C0F30800C0F50074402C00D9D7
:1008B000402474480088C0F30800784A8118224612
:1008C0000120FFF79CFF06466E48006830446D49E2
:1008D00008600020CEE770B5694800686A49096879
:1008E000441AB4F5005F01D9102501E0C4F347258F
:1008F0006C02224664480168694805F0E2F86248E3
:100900000068142202EB50212A46654805F04BFB93
:1009100040B15D480068142202EB50212A4660482D
:1009200005F041FB58480068204457490860002002
:1009300070BD10B5012006F0E3FF202801D0102083
:1009400010BD5048006850490968884207D2554890
:100950000078FFF786FF0020524908700DE04948F3
:10096000006847490968884205D2FFF756FF012011
:100970004C49087001E00220E2E70120E0E7002591
:1009800000260024FFF7E7FEFFF729FF04F05EF8DA
:1009900045A007F0F1FB04F059F833E0FFF7C9FF79
:1009A000022809D037480068854205D035480068DC
:1009B000FFF7BAFD334805683148006832490968D5
:1009C000401AB0F5007F14D9FFF785FF2E48006864
:1009D000864217D00121374802F059FD2A4806689F
:1009E00027480068FFF780FD27480068FFF78CFD67
:1009F00008E023480068844204D000BF2048006813
:100A0000FFF772FDCAE7000034000020020000205A
:100A10000400002078840008405C00400408014085
:100A2000B00121424C4344206F6B210054494D20BA
:100A30006F6B21004578697420494F206F6B21004E
:100A400053442043617264204572726F722100002A
:100A500053442043617264204F4B2100496E6974F6
:100A600069616C697A65205372616D210A0000002A
:100A70005553422046696E6973682E2E2E0A000077
:100A800054000020580000205C0000204C00002092
:100A90004E0000205000002052000020980100204D
:100AA00098030020610000205374617274202E2E80
:100AB0002E210A0000240140EC480088EC490880FF
:100AC000EC480088EC49088008460088EB49098812
:100AD000884207DBE8480088E8490988401AE84965
:100AE000088006E00020E6490880E4480088E249E2
:100AF0000880DF480088E3490988884219DAE1481C
:100B000000884FF6FF71081AD94909880844DE4960
:100B10000880DB480088002805DDD9480088401E91
:100B2000D74908800CE0D4480088401CD24908808E
:100B300006E0CF480088D3490988401AD249088086
:100B4000CB480088CF490880CB480088CB49088033
:100B5000704738B505460024CB4800788DF8010071
:100B6000C948008800128DF80200C54800788DF849
:100B700003009DF80300002801DD032406E09DF832
:100B80000200002801DD022400E001242819C0B27F
:100B90008DF80000601CC4B22246BC48016868465B
:100BA00004F081FFB94800682044B849086038BDA6
:100BB00010B500240421B64800F0A3FC08B144F0AD
:100BC00020040821B24800F09CFC08B144F0100455
:100BD0004021AF4800F095FC08B144F040042046A5
:100BE00010BD70B505460E461446AA48007800F0C0
:100BF000840084280AD1FFF75FFFFFF7D9FFA649D9
:100C0000087008460078FFF7A4FF03E0202C01D10C
:100C100003F01CFF284601F08AF970BD10B52022B0
:100C200011460220FFF7DDFF0720012181409B4A8A
:100C3000430942F8231000BF10BD10B50720012161
:100C400081404209920002F1E022C2F8001100BF87
:100C5000002220210420FFF7C4FF10BD10B5102290
:100C600011460820FFF7BDFF10BD10B5002210216E
:100C70000846FFF7B6FF10BD38B50446834805683F
:100C800087A00068009081480068C01C7F49086008
:100C90009DF800002044C0B28DF8000003222946D0
:100CA000684604F000FF38BD1FB50121084600F07A
:100CB00051FE0121102000F04DFE07208DF80400A8
:100CC00002208DF8050000208DF8060001208DF827
:100CD000070001A800F0B9FA08208DF804000220EE
:100CE0008DF8050001208DF806008DF8070001A899
:100CF00000F0ABFA09208DF8040002208DF8050001
:100D00008DF8060001208DF8070001A800F09DFA7B
:100D10000A208DF8040002208DF805008DF80600E9
:100D200001208DF8070001A800F08FFA0220ADF82D
:100D3000000003208DF8020028208DF8030069468A
:100D4000534800F04BFB0420ADF8000003208DF861
:100D5000020028208DF8030069464D4800F03EFB54
:100D60000820ADF8000003208DF8020028208DF83F
:100D700003006946464800F031FB1020ADF8000042
:100D800003208DF8020028208DF8030069464048B2
:100D900000F024FB0121022000F036FC022002902A
:100DA00000208DF80C0008208DF80D0000208DF833
:100DB0000E0002A801F044F80221084600F024FCCD
:100DC0000420029000208DF80C000C208DF80D00FE
:100DD00001208DF80E0002A801F032F80321022054
:100DE00000F012FC0820029000208DF80C00082072
:100DF0008DF80D0001208DF80E0002A801F020F8FA
:100E00000421022000F000FC1020029000208DF848
:100E10000C000C208DF80D0001208DF80E0002A8AA
:100E200001F00EF81FBD704710B5022002F0CBFD97
:100E300038B1022002F0DBFD03F0FDFC0446FFF7B1
:100E400083FB10BD704700BFFEE700BFFEE700BF99
:100E5000FEE7704770477047704710B506F010FC0A
:100E600010BD10B505F074FA10BD00002404004058
:100E700048000020460000204A0000204E000020CC
:100E8000520000204C0000205000002054000020A0
:100E900000100140440000206000002080E100E0DC
:100EA00002FFFF000CB50020019000906C48006824
:100EB00040F480306A49086000BF6948006800F467
:100EC000003000900198401C0190009818B90198DA
:100ED000B0F5A06FF1D16248006800F4003010B1A5
:100EE0000120009001E0002000900098012843D1EB
:100EF0005C48006840F010005A49086008460068E5
:100F000020F0030008600846006840F00200086016
:100F1000534840685249486008464068486008465F
:100F2000406840F4806048600846406820F47C10C7
:100F300048600846406840F4E81048600846006889
:100F400040F08070086000BF4548006800F0007005
:100F50000028F9D04248406820F00300404948602A
:100F60000846406840F00200486000BF3C484068C6
:100F700000F00C000828F9D10CBD10B5FFF792FF66
:100F800010BD10B53648006840F0010034490860D3
:100F900008464068344908403149486008460068BE
:100FA000324908402E4908600846006820F4802035
:100FB00008600846406820F4FE0048604FF41F00B7
:100FC0008860FFF7DAFF4FF000602949086010BD24
:100FD00010B5002100200022214B5B6803F00C01BA
:100FE00021B1042906D0082928D107E0214B224C41
:100FF000236027E01F4B204C236023E0184B5B68E5
:1010000003F47010164B5B6803F48032022303EB89
:10101000904022B9194B4343174C23600DE0104B0D
:101020005B6803F4003323B1144B4343124C236039
:1010300003E0104B4343104C236003E00D4B0E4C78
:10104000236000BF00BF064B5B68C3F303130C4C67
:10105000E15C094B1B68CB40074C236010BD0000CE
:1010600000100240002002400000FFF8FFFFF6FEE3
:1010700008ED00E000127A000800002000093D00A1
:101080000C00002010B504466FF0040000F027F9B2
:10109000E11704EB5171C1F3C7012B4A11701046DF
:1010A000007800EB4001C1EBC0104FF6FF7101EA80
:1010B000C0002649088010BD0146234A12784A43E1
:1010C0004FF0E0235A6100229A611A46126942F0F9
:1010D00001021A6100BF4FF0E022106900F0010226
:1010E0001AB100F48032002AF5D04FF0E0221269E4
:1010F00022F001024FF0E0231A6100229A6170474A
:101100000146124A12884A434FF0E0235A610022F6
:101110009A611A46126942F001021A6100BF4FF04B
:10112000E022106900F001021AB100F48032002AB6
:10113000F5D04FF0E022126922F001024FF0E023D7
:101140001A6100229A6170471C0000201E000020D6
:1011500010B586B004460121042000F0FBFB0121FC
:10116000880300F0F7FB0121084600F0F3FB4FF481
:101170000070ADF8140003208DF8160018208DF8CB
:10118000170005A9234800F029F94FF48060ADF855
:10119000140004208DF8170005A91E4800F01EF960
:1011A00001940020ADF80800ADF80A00ADF80C007D
:1011B000ADF810000C20ADF80E0001A9164800F0A3
:1011C00070FC0121144800F0F8FC4021124800F0A6
:1011D000DCFD012240F225510F4800F0FAFC2520E9
:1011E0008DF8000003208DF801008DF80200012029
:1011F0008DF80300684600F028F806B010BD10B561
:101200004021054800F0C1FD40F22551024800F0A0
:10121000C5FD10BD00080140003801400648804768
:1012200006480047FEE7FEE7FEE7FEE7FEE7FEE7CB
:10123000FEE7FEE7FEE7FEE7830F00083101000846
:1012400031490143314A1160704770B500210023D4
:101250000F22C47804B32D4C246804F4E064C4F570
:10126000E064210AC1F10403CA40447804FA03F19E
:101270008478144021430901254C0678A15504784F
:1012800004F01F050124AC4005786D11AD0005F197
:10129000E025C5F8004109E0047804F01F050124A9
:1012A000AC401C4D0678761145F8264070BD1A4AB0
:1012B0000A400243154B1B1F1A60704739B1134A8D
:1012C000121D12680243114B1B1D1A6006E00F4AE3
:1012D000121D126882430D4B1B1D1A6070470428B3
:1012E00008D14FF0E021096941F004014FF0E022FC
:1012F000116107E04FF0E021096921F004014FF08E
:10130000E0221161704700000000FA050CED00E0DA
:1013100000E400E080E100E080FFFF1F10B504461C
:10132000CC48844208D10121042000F02DFB00218B
:10133000042000F029FB46E0C748844208D101217F
:10134000082000F021FB0021082000F01DFB3AE0FE
:10135000C248844208D10121102000F015FB002171
:10136000102000F011FB2EE0BD48844208D101217D
:10137000202000F009FB0021202000F005FB22E0E6
:10138000B848844208D10121402000F0FDFA002134
:10139000402000F0F9FA16E0B348844208D1012158
:1013A000802000F0F1FA0021802000F0EDFA0AE040
:1013B000AE48844207D10121801500F0E5FA0021F2
:1013C000A01500F0E1FA10BD10B50121084600F0AB
:1013D000DBFA0021012000F0D7FA10BD2DE9F04121
:1013E000024600250026002000230024002791F853
:1013F00003C00CF00F0591F803C00CF0100CBCF109
:10140000000F03D091F802C04CEA050591F800C026
:10141000BCF1000F31D0146800202BE04FF0010C1C
:101420000CFA00F3B1F800C00CEA03069E4220D18A
:1014300083004FF00F0C0CFA03F7BC4305FA03FCD2
:101440004CEA040491F803C0BCF1280F06D14FF018
:10145000010C0CFA00FCC2F814C00AE091F803C0B9
:10146000BCF1480F05D14FF0010C0CFA00FCC2F89A
:1014700010C0401C0828D1D31460B1F800C0BCF1E2
:10148000FF0F34DD546800202EE000F1080C4FF00F
:10149000010808FA0CF3B1F800C00CEA03069E42FA
:1014A00021D183004FF00F0C0CFA03F7BC4305FA6F
:1014B00003FC4CEA040491F803C0BCF1280F05D1E9
:1014C00000F1080C08FA0CF8C2F8148091F803C077
:1014D000BCF1480F07D100F1080C4FF0010808FAE1
:1014E0000CF8C2F81080401C0828CED35460BDE828
:1014F000F0814FF6FF710180022181700421C170DB
:1015000070470246002093680B400BB1012000E0B9
:10151000002070470146886880B27047024600206C
:10152000D3680B400BB1012000E00020704701465A
:10153000C86880B2704701617047416170470AB165
:10154000016100E041617047C16070474FF4803233
:101550000A438261816182618269826970470246C1
:101560000020434B18684FF68073184040EA021081
:1015700008433F4B186070473E49C8617047F0B55B
:101580000A46002300240021002500F00046B6F1A1
:10159000004F02D1364EF16901E0354E7168C0F35B
:1015A000034583B200F44016B6F5401F08D121F080
:1015B00070612F4E766826F070662D4F7E6012E0C7
:1015C00000F48016B6F5801F06D1032606FA05F44E
:1015D000A14341F0706106E0460D360103FA06F6BC
:1015E000B14341F0706122B1460D360103FA06F6AF
:1015F000314300F00046B6F1004F02D11C4EF161BC
:1016000001E01B4E7160F0BD30B500228B071C0F4E
:101610000F2303FA04F2164B08338C1053F82430CE
:101620009343134C08348D1044F8253023468C1016
:1016300053F824308C07240F00FA04F423430C4C95
:1016400008348D1044F8253030BD0A49DC3108607B
:101650007047000000080140000C014000100140EC
:101660000014014000180140001C0140002001400E
:101670000000014000002042DF48006840F0010007
:10168000DD49086008464068DC490840DA4948609E
:1016900008460068DA490840D749086008460068EB
:1016A00020F4802008600846406820F4FE0048606E
:1016B0004FF41F0088607047CF49096821F48031DA
:1016C000CD4A11601146096821F480211160B0F5FE
:1016D000803F03D0B0F5802F0ED106E0C6490968DF
:1016E00041F48031C44A116007E0C349096841F4FC
:1016F000A021C14A116000E000BF00BF704710B5D3
:1017000001460022002300204A11012A02D1BA4CCE
:10171000236806E0022A02D1B74C236A01E0B64CE6
:10172000636A01F01F02012494401C400CB10120A7
:1017300000E0002010BD38B50020009000240025F6
:1017400000BF3120FFF7DBFF05460098401C0090EA
:101750000098B0F5A06F01D0002DF2D03120FFF736
:10176000CEFF08B1012400E00024204638BD014628
:101770000020A14A106820F0F80040EAC100106083
:101780007047A04908607047024600209A4B58688D
:1017900020F47C1042EA01031843974B58607047CD
:1017A00098490866704701460020934A506820F027
:1017B00003000843506070478F48406800F00C00F9
:1017C0007047014600208C4A506820F0F000084322
:1017D0005060704701460020874A506820F4E0605E
:1017E00008435060704701460020834A506820F447
:1017F000605040EAC1005060704729B17E4A527A79
:1018000002437D4B5A7204E07B4A527A82437A4B00
:101810005A7270477B49D8310860704701460020F2
:10182000754A506820F440400843506070470021DA
:10183000714A20321170704A82F82010012802D0BB
:1018400004280AD104E001216B4A2032117005E01E
:101850000521694A2032117000E000BF00BF7047C7
:101860006949086070476449096A0143624A116224
:101870007047654944390860704730B5002100223F
:10188000002400235C4D6D6805F00C0121B1042992
:1018900005D0082923D105E05C4D056022E05B4DB1
:1018A00005601FE0544D6D6805F47012524D6D686F
:1018B00005F48034022505EB92421CB9544D554382
:1018C00005600BE04C4D6D6805F400351DB1504DC1
:1018D0005543056002E04D4D5543056002E04B4D18
:1018E000056000BF00BF444D6D6805F0F0010909B7
:1018F000484D6B5C0568DD4045603F4D6D6805F403
:10190000E061090A434D6B5C4568DD4085603A4DF6
:101910006D6805F46051C90A3E4D6B5C4568DD4059
:10192000C560354D6D6805F44041890B3A4D6B5CDF
:10193000C568B5FBF3F5056130BD29B12E4A526982
:1019400002432D4B5A6104E02B4A526982432A4BD1
:101950005A61704729B1284A92690243264B9A611D
:1019600004E0254A92698243234B9A61704729B16A
:10197000214AD2690243204BDA6104E01E4AD2694F
:1019800082431D4BDA61704729B11B4AD26802437A
:10199000194BDA6004E0184AD2688243164BDA60C9
:1019A000704729B1144A12690243134B1A6104E0CB
:1019B000114A12698243104B1A617047124940392B
:1019C000086070470F49C86470470B49C871704779
:1019D0000948406A40F080700749486270470146F4
:1019E0000020054A92680A400AB1012000E0002068
:1019F0007047014988727047001002400000FFF8EC
:101A0000FFFFF6FE000042428004424200127A00CC
:101A100000093D00200000203000002010B50446E1
:101A2000FB48844209D101218803FFF7ADFF002163
:101A30004FF48040FFF7A8FF32E0F648844209D116
:101A400001214804FFF7ADFF00214FF40030FFF7FC
:101A5000A8FF25E0F048844209D101218804FFF75E
:101A6000A0FF00214FF48020FFF79BFF18E0EB4818
:101A7000844209D10121C804FFF793FF00214FF4EC
:101A80000020FFF78EFF0BE0E548844208D10121DA
:101A90000805FFF786FF00214FF48010FFF781FF54
:101AA00010BD2DE9F04786B005460E460024A2463B
:101AB00000BFA1460027B08900B100BF2F462C8A85
:101AC0004CF6FF700440F08804432C82AC894EF63B
:101AD000F3100440B08831890843718908430443F6
:101AE000AC81AC8A4FF6FF400440B0890443AC821D
:101AF00001A8FFF7C2FEC648874202D1DDF810A058
:101B000001E0DDF80CA0A88900F4004040B10AEB28
:101B1000CA0000EB0A1031684900B0FBF1F807E099
:101B20000AEBCA0000EB0A1031688900B0FBF1F83B
:101B30006420B8FBF0F004012009642101FB108946
:101B4000A88900F4004040B1322000EBC900B0FB8E
:101B5000F1F000F00700044308E0322000EB091028
:101B60006421B0FBF1F000F00F0004432C8106B0BB
:101B7000BDE8F0874FF41651016000218180C180DB
:101B800001810C21418100218181704710B50246FD
:101B90000020108A4FF2FF0318400B884C88234323
:101BA0008C882343CC8823431843108210BD002126
:101BB000018041808180C180704721B1828942F4D7
:101BC0000052828104E082894DF6FF731A408281BF
:101BD0007047F0B50346002400260025002040F69B
:101BE0006A17B94200D100BF1846C1F3421401F090
:101BF0001F06012707FA06F5012C01D10C3004E07D
:101C0000022C01D1103000E014301AB107682F43C4
:101C1000076002E00768AF430760F0BD1AB1838A2E
:101C20000B43838202E0838A8B4383827047028A5C
:101C30004FF6F0731A400282028A0A43028270470A
:101C400082894FF2FF731A40828182890A4382811E
:101C5000704721B1828942F00202828104E08289C8
:101C60004FF6FD731A4082817047028A4FF6DF7388
:101C70001A400282028A0A430282704721B1028A14
:101C800042F48042028204E0028A4BF6FF731A405B
:101C900002827047C1F3080282807047014688883B
:101CA000C0F308007047818941F0010181817047CC
:101CB000028BD2B20283028B42EA01220283704776
:101CC000028B02F47F420283028B0A430283704735
:101CD00021B1828A42F02002828204E0828A4FF699
:101CE000DF731A408282704721B1828A42F010026B
:101CF000828204E0828A4FF6EF731A408282704734
:101D000021B1828A42F00802828204E0828A4FF680
:101D1000F7731A408282704721B1828942F40042EF
:101D2000828103E08289C2F30E028281704721B171
:101D3000828A42F40062828204E0828A4FF2FF7358
:101D40001A4082827047828A4FF6FB731A40828261
:101D5000828A0A438282704721B1828A42F002025B
:101D6000828204E0828A4FF6FD731A4082827047B5
:101D700002460020B1F5007F00D100BF13880B4060
:101D80000BB1012000E00020704701F40072B2F5B1
:101D9000007F00D100BFCA430280704770B5024681
:101DA000002400230025002040F66A16B14200D12D
:101DB00000BFC1F3421501F01F03012606FA03F329
:101DC000012D02D19689334006E0022D02D1168AF8
:101DD000334001E0968A33400C12012606FA04F4DF
:101DE0001688344013B10CB1012000E0002070BD12
:101DF00010B50022002340F66A14A14200D100BFB2
:101E00000A1201249440A3B2DC43048010BD0000F8
:101E1000003801400044004000480040004C0040B1
:101E200000500040002044490860091D0860091D59
:101E30000860091D086041483F4914310860704737
:101E400000213D498279002A3AD00A461268036887
:101E50009A430B461A600A1D126803689A430B1DC9
:101E60001A60027911440A6803681A430A60324A08
:101E70000832126803689A432F4B08331A601A1D00
:101E8000126803689A432C4B0C331A604279102A6B
:101E90000ED11A1F126803681A43274B08331A60C1
:101EA0001A1D126803681A43234B0C331A600DE0A5
:101EB0002149427911440A6803681A430A6005E01F
:101EC000027911440A6803689A430A607047002146
:101ED000016001710C214171002181717047164927
:101EE000103109680143144A1032116070470146ED
:101EF0000020114A143212680A400AB1012000E0A1
:101F0000002070470C4914310860704701460020DA
:101F10000022094B1B6803EA0102074B14331B68BC
:101F20000B4013B10AB1012000E0002070470249C4
:101F3000143108607047000000040140FFFF0F00EB
:101F400010B50446FE48844208D10121C014FFF7B1
:101F50001BFD0021E014FFF717FDC4E0B4F1804F32
:101F600008D101210846FFF71CFD00210120FFF7E1
:101F700018FDB8E0F348844208D101210220FFF7A0
:101F800010FD00210220FFF70CFDACE0EE4884427A
:101F900008D101210420FFF704FD00210420FFF7F0
:101FA00000FDA0E0E948844208D101210820FFF7A4
:101FB000F8FC00210820FFF7F4FC94E0E448844298
:101FC00008D101211020FFF7ECFC00211020FFF7C1
:101FD000E8FC88E0DF48844208D101212020FFF797
:101FE000E0FC00212020FFF7DCFC7CE0DA488442A2
:101FF00008D101214014FFF7C7FC00216014FFF74E
:10200000C3FC70E0D548844209D10121C804FFF720
:10201000BBFC00214FF40020FFF7B6FC63E0D04882
:10202000844209D101210805FFF7AEFC00214FF4DD
:102030008010FFF7A9FC56E0CA48844209D101216B
:102040004805FFF7A1FC00214FF40010FFF79CFCAE
:1020500049E0C548844208D101214020FFF7A1FC96
:1020600000214020FFF79DFC3DE0C048844208D19C
:1020700001218020FFF795FC00218020FFF791FCD3
:1020800031E0BB48844208D101218015FFF789FC6B
:102090000021A015FFF785FC25E0B648844209D150
:1020A00001210804FFF770FC00214FF48030FFF796
:1020B0006BFC18E0B048844209D101214804FFF7C5
:1020C00063FC00214FF40030FFF75EFC0BE0AB48EF
:1020D000844208D101218804FFF756FC00214FF407
:1020E0008020FFF751FC10BD00220288944B9842DB
:1020F0000ED0994B98420BD0B0F1804F08D0914B45
:10210000984205D0904B984202D0904B984204D10F
:102110004FF68F731A404B881A438D4B984207D065
:102120008C4B984204D04FF6FF431A40CB881A4399
:1021300002808B8883850B880385814B98420BD066
:10214000854B984208D08B4B984205D08A4B9842D9
:1021500002D08A4B984201D10B7A038601238382F5
:10216000704770B5002400220023058C4FF6FE76E0
:1021700035400584028C8388048B4FF68F752C4084
:10218000B51E2C400D882C43751E2A400D892A430C
:102190004D882A436A4DA8420BD06F4DA84208D003
:1021A000744DA84205D0744DA84202D0734DA84288
:1021B00013D14FF6F7752A404D892A434FF6FB7528
:1021C0002A408D882A434FF6FF652B404FF6FF5576
:1021D0002B408D892B43CD892B4383800483CD886D
:1021E0008586028470BD70B5002400220023058C12
:1021F0004FF6EF7635400584028C8388048B48F6D1
:10220000FF752C404FF6FF452C400D884FF6FF76AA
:1022100006EA05252C434FF6DF752A400D8906EAAC
:1022200005152A434D8806EA05152A43444DA84260
:1022300002D0494DA8421DD14FF67F752A404D89E5
:102240004FF6FF7606EA05152A434FF6BF752A407A
:102250008D8806EA05152A434FF6FF352B404FF2CD
:10226000FF752B408D8906EA85052B43CD8906EA4B
:1022700085052B4383800483CD880587028470BD48
:1022800070B5002400220023058C4FF6FF66354010
:102290000584028C8388848B4FF68F752C404FF613
:1022A000FC752C400D882C434FF6FF552A400D89B4
:1022B0004FF6FF7606EA05252A434D8806EA0525EE
:1022C0002A431F4DA84202D0234DA8421DD14FF2F0
:1022D000FF752A404D894FF6FF7606EA05252A4309
:1022E0004FF6FF352A408D8806EA05252A434EF62B
:1022F000FF752B404DF6FF752B408D8906EA0515BD
:102300002B43CD8906EA05152B4383808483CD8832
:102310008587028470BD70B5002200230024058CDF
:102320004EF6FF7635400584038C8488828B48F610
:10233000FF752A404FF6FF452A400D8820E0000037
:10234000002C01400004004000080040000C004048
:10235000001000400014004000340140004C0140D7
:10236000005001400054014000180040001C004093
:10237000002000400040014000440140004801406E
:102380004FF6FF7606EA05252A434DF6FF752B40EA
:102390000D8906EA05352B434D8806EA05352B43A2
:1023A000FA4DA84202D0FA4DA84208D14BF6FF756B
:1023B0002C408D894FF6FF7606EA85152C438480E4
:1023C0008283CD88A0F84050038470BD828B4FF289
:1023D000FF331A408283828B4FF6FF7303EA012397
:1023E0001A4382837047F0B50C461546002200213F
:1023F0000026078C4EF6FF7C07EA0C070784828BC9
:10240000018C4FF6FF7707EA043640F6FF473A4063
:102410004FF6FF7707EA05273A434FF6FF7707EABB
:1024200003373A43D94FB8420ED0D94FB8420BD0F8
:10243000B0F1804F08D0D74FB84205D0D64FB84240
:1024400002D0D64FB84206D14DF6FF77394046F458
:102450008057394305E047F6FF57394044F4805729
:10246000394382830184F0BD828B4FF6F3731A40A7
:102470008283828B0A4382837047F0B50C461546EF
:10248000002200210026078C4FF6FF6C07EA0C079C
:102490000784828B018C4FF6FF7707EA04264FF6FC
:1024A0000C773A404FF6FF7707EA03172F433A437A
:1024B000B64FB8420ED0B64FB8420BD0B0F1804FF5
:1024C00008D0B44FB84205D0B34FB84202D0B34F92
:1024D000B84206D14FF6FF57394046F4807739436A
:1024E00005E04FF2FF57394044F480773943828347
:1024F0000184F0BD028B4FF2FF331A400283028B3E
:102500004FF6FF7303EA01231A4302837047F0B5C5
:102510000C461546002200210026078C4FF6EF7C62
:1025200007EA0C070784028B018C4FF6FF7707EA56
:10253000041640F6FF473A404FF6FF7707EA0337A5
:102540003A434FF6FF7707EA05273A438F4FB842E1
:102550000ED08F4FB8420BD0B0F1804F08D08D4FC6
:10256000B84205D08C4FB84202D08C4FB84206D149
:102570004FF6DF77394046F01007394305E04FF654
:102580005F77394044F01007394302830184F0BD7E
:10259000028B4FF6F3731A400283028B0A430283C5
:1025A0007047F0B50C46154600220021068C4FF608
:1025B000FE773E400684028B018C4FF60C7632404B
:1025C0007E1C06EA03162E433243704EB0420ED0F4
:1025D0006F4EB0420BD0B0F1804F08D06D4EB0427C
:1025E00005D06D4EB04202D06C4EB04206D14FF6CF
:1025F000FD76314044F00106314305E04FF6F576B3
:10260000314044F00106314302830184F0BD70B5CE
:1026100005460C465D4885420ED05D4885420BD08C
:10262000B5F1804F08D05B48854205D05A488542B5
:1026300002D05A48854200D100E000BF208850B93E
:102640002389A28861882846FFF7ABFFE1882846E6
:10265000FFF79EFF25E0208804280AD12389A2885D
:1026600061882846FFF753FFE1882846FFF742FFBD
:1026700017E0208808280AD12389A2886188284683
:10268000FFF7FBFEE1882846FFF7EEFE09E023890D
:10269000A28861882846FFF7A6FEE1882846FFF752
:1026A00095FE70BD2DE9F04105460C460026012738
:1026B000608808B9022600E00026A088012801D120
:1026C000022700E001272088A0B92389A288618819
:1026D0002846FFF766FFE1882846FFF759FF238960
:1026E0003A4631462846FFF712FFE1882846FFF7B1
:1026F00001FF13E02389A28861882846FFF707FFBE
:10270000E1882846FFF7F6FE23893A4631462846F7
:10271000FFF747FFE1882846FFF73AFFBDE8F08161
:102720000A884B881A438B881A43CB881A430B8933
:102730001A434B891A438B891A43A0F844207047E7
:102740004FF6FF71818000210180C18041800172BC
:1027500070470021018041808180C18001814181D9
:102760008181C181704700210180418001218180E8
:102770000021C1800181704700210180418081805A
:10278000C18001814181818170470000002C01409E
:10279000003401400004004000080040000C0040EC
:1027A00021B1028842F00102028004E002884FF663
:1027B000FE731A400280704731B1B0F8442042F4F1
:1027C0000042A0F8442005E0B0F84420C2F30E0215
:1027D000A0F8442070471AB183890B43838102E03B
:1027E00083898B43838170478182704741EA02036A
:1027F000A0F8483070471AB183890B43838102E007
:1028000083898B438381704701894FF6F8721140A9
:10281000018170470A46002101894FF68F731940E4
:1028200011430181704730B504460D4629462046C4
:10283000FFF7F0FF208940F00700208130BD2DE92F
:10284000F04104460D4616461F46602D06D13B4614
:10285000012231462046FFF75AFE05E03B460122A1
:1028600031462046FFF79DFE29462046FFF7D2FF5E
:10287000208940F007002081BDE8F08130B50C468A
:1028800000210189C9B24FF6FF7505EA03251543FA
:1028900025432943018130BD2DE9F04105460E460F
:1028A00017469846002443463A4631462846FFF7E5
:1028B000E5FF2C894FF6F870044044F007044FF60A
:1028C0008F70044044F070042C81BDE8F081F0B5B5
:1028D00004460D4616461F463B46324629462046CC
:1028E000FFF7CCFF208940F480402081F0BD0185B6
:1028F000828270470A46002101884FF68F73194083
:10290000114301807047F0B50C4615461E46002164
:10291000002200230189028B038C4FF6F87739409F
:1029200021434FF6FC473A4040F201173A434FF635
:10293000DD773B404FF6FF7707EA06172F433B430F
:10294000018102830384F0BD0A460021018B4FF60A
:102950008F7319401143018370470A460021018B90
:1029600048F6FF7319404FF6FF7303EA0223194339
:10297000018370470A460021818B4FF68F731940FF
:102980001143818370470A460021818B48F6FF730B
:1029900019404FF6FF7303EA0223194381837047FE
:1029A00021B1028842F08002028004E002884FF6E2
:1029B0007F731A400280704721B1828842F004027E
:1029C000828004E082884FF6FB731A408280704751
:1029D00021B1828842F00802828004E082884FF6AA
:1029E000F7731A408280704721B1828842F0010259
:1029F000828004E082884FF6FE731A40828070471E
:102A00000A460021018B4FF6F773194011430183E9
:102A100070470A460021018B4FF2FF7319404FF6B1
:102A2000FF7303EA02231943018370470A4600211A
:102A3000818B4FF6F77319401143818370470A4623
:102A40000021818B4FF2FF7319404FF6FF7303EAA9
:102A500002231943818370470A460021018B4FF6F8
:102A6000FB7319401143018370470A460021018B13
:102A70004FF6FF3319404FF6FF7303EA0223194361
:102A8000018370470A460021818B4FF6FB73194082
:102A90001143818370470A460021818B4FF6FF3333
:102AA00019404FF6FF7303EA0223194381837047ED
:102AB0000A460021018B4FF67F73194011430183B1
:102AC00070470A460021018BC1F30E014FF6FF73D8
:102AD00003EA02231943018370470A460021818BD0
:102AE0004FF67F7319401143818370470A460021D6
:102AF000818BC1F30E014FF6FF7303EA02231943E2
:102B0000818370470A460021018C4FF6FD731940FE
:102B10001143018470470A460021018C4FF6F77378
:102B200019401143018470470A460021018C4FF679
:102B3000DF7319404FF6FF7303EA02131943018450
:102B400070470A460021018C4FF67F7319404FF6FB
:102B5000FF7303EA02131943018470470A460021F8
:102B6000018C4FF6FF5319404FF6FF7303EA02231F
:102B70001943018470470A460021018C4FF2FF730C
:102B800019404FF6FF7303EA02231943018470478B
:102B90000A460021018C4DF6FF7319404FF6FF7372
:102BA00003EA023319430184704730B5002301243E
:102BB0008C40A3B2048C9C430484048C02FA01F57B
:102BC000ADB22C43048430BD30B5002304248C40C6
:102BD000A3B2048C9C430484048C02FA01F5ADB2C8
:102BE0002C43048430BD70B50346002000241846F1
:102BF000183001258D40ACB21D8CA5431D8409B150
:102C0000082909D100EB6100056825F07005056011
:102C10000568154305600EE00D1FC5F34E052844F9
:102C2000056825F4E045056005684FF6FF7606EA7D
:102C300002263543056070BD21B1028842F00202D0
:102C4000028004E002884FF6FD731A40028070474C
:102C500021B1028842F00402028004E002884FF6AB
:102C6000FB731A400280704721B1828842F08002D3
:102C7000828004E082884FF67F731A40828070471A
:102C800002884FF6F7731A40028002880A430280D6
:102C9000704782884FF68F731A40828082880A4379
:102CA0008280704702894FF6F8731A4002810289C8
:102CB0000A430281704702894FF67F731A400281EE
:102CC00002890A4302817047818470478185704779
:102CD000818670470187704781877047A0F8401050
:102CE000704702884FF6FF431A40028002880A4369
:102CF000028070470146888E70470146088F7047F2
:102D00000146888F70470146B1F840007047014680
:102D1000888C70470146088D704702460020138A50
:102D20000B400BB1012000E000207047CA43028233
:102D3000704730B50246002000230024158A05EABA
:102D40000103958905EA010413B10CB1012000E0EB
:102D5000002030BDCA4302827047000030B943F200
:102D6000DB028100A1F1C0410A6005E043F2D2021A
:102D70008100A1F1C0410A606FF07042411C8900DE
:102D8000A1F1C0410A608100A1F1C041C1F8042154
:102D9000704710280AD118214FF0204211664021B7
:102DA00051664FF0FC319166D16610E01821F74A68
:102DB000116040214FF02042C2F884104FF0FC31E6
:102DC000F24A083211604FF02042C2F88C1070476E
:102DD0001820EE492031086000200906C1F8A4003F
:102DE0004FF0FC30E94928310860091D0860091DD1
:102DF00008607047D0E901121143C26811430269AB
:102E000011434269114382691143C2691143026A45
:102E10001143426A1143826A1143C26A1143026B31
:102E2000114302689200A2F1C04211608168082932
:102E30000BD101688900A1F1C041096841F040024D
:102E400001688900A1F1C0410A60416B0968426BC9
:102E5000526841EA0211426B926841EA0221426BD8
:102E6000928941EA0241426B128A41EA0251426B65
:102E7000127D41EA0261426B926911430268521C61
:102E80009200A2F1C0421160C16AB1F5804F1BD11E
:102E9000816B0968826B526841EA0211826B926809
:102EA00041EA0221826B128A41EA0251826B127D51
:102EB00041EA0261826B9269114302689200A2F1B9
:102EC000C042C2F8041107E06FF070420168890047
:102ED000A1F1C041C1F80421704730B500210022A2
:102EE0000023446844F0080485682C43C5682C43DB
:102EF00005692C43456944EA4524856944EA45311E
:102F0000C4692468C5696D6844EA0524C5692D89CA
:102F100044EA0544C5692D7B44EA0562046A2468D5
:102F2000056A6D6844EA0524056A2D8944EA05446A
:102F3000056A2D7B44EA05630468102C05D14FF027
:102F400020442166A266E36608E0904C21604FF0C1
:102F50002044C4F888208D4C0C34236030BD0168B7
:102F600041F01001426841EA4221826841EA42315F
:102F7000864A20321160C1680968C268526841EA15
:102F80000221C268128941EA0241C268127B41EA09
:102F900002617E4A2832116001690968026952683B
:102FA00041EA02210269128941EA02410269127B67
:102FB00041EA0261754A2C3211604169096842692F
:102FC000526841EA02214269128941EA024142699A
:102FD000127B41EA02614FF02042C2F8B010704704
:102FE000002101600221416000218160C160016116
:102FF00041618161C16101624FF4805141624900C8
:1030000081620021C16201630F21426B1160426B3A
:103010005160FF21426B91600F21426BD160426B86
:103020001161426B51610021426B91610F21826BF2
:103030001160826B5160FF21826B91600F21826B66
:10304000D160826B1161826B51610021826B916151
:10305000704710210160002141608160C160016101
:1030600041618161FC21C2691160C2695160C2691C
:103070009160C269D160026A1160026A5160026A9D
:103080009160026AD16070470021016041608160F7
:10309000FC21C2681160C2685160C2689160C26858
:1030A000D160026911600269516002699160026930
:1030B000D160426911604269516042699160426920
:1030C000D160704751B18200A2F1C042126842F053
:1030D00001038200A2F1C042136009E08200A2F164
:1030E000C04212682A4B1A408300A3F1C0431A6001
:1030F000704799B1102808D14FF02042126E42F06B
:1031000004024FF020431A661DE0204A126842F084
:1031100004024FF02043C3F8802014E0102809D1A6
:103120004FF02042126E1A4BDB1E1A404FF0204324
:103130001A6608E0154A1268154BDB1E1A404FF05C
:103140002043C3F88020704748B1104920310968F6
:1031500041F004014FF02042C2F8A01009E00B49F1
:10316000203109680A4AD21E11404FF02042C2F8AD
:10317000A0107047B9B110280CD14FF02042126E48
:1031800042F040024FF020431A661FE0800000A08A
:10319000FEFF0F00724A126842F040024FF02043D7
:1031A000C3F8802012E0102808D14FF02042126EA0
:1031B0006C4B1A404FF020431A6607E0684A1268C9
:1031C000684B1A404FF02043C3F8802070470146F7
:1031D0000020102903D14FF02042506F02E0604AD6
:1031E00014321068704710B5F2B1102807D14FF0B3
:1031F00020435B6E0B434FF02044636632E0B0F532
:10320000807F08D1564B1B1D1B680B434FF0204499
:10321000C4F8843026E0524B24331B680B434FF034
:103220002044C4F8A4301DE0102807D14FF02043FB
:103230005B6E8B434FF02044636613E0B0F5807FF4
:1032400008D1474B1B1D1B688B434FF02044C4F82B
:10325000843007E0424B24331B688B434FF02044FB
:10326000C4F8A43010BD10B5024600200023102A77
:1032700003D14FF02044636E09E0B2F5807F03D1A3
:10328000374C241D236802E0354C2434236803EABC
:1032900001040CB1012000E0002010BD102807D16E
:1032A0004FF02042526E8A434FF020435A6613E09B
:1032B000B0F5807F08D12A4A121D12688A434FF068
:1032C0002043C3F8842007E0254A243212688A4349
:1032D0004FF02043C3F8A420704770B50246002089
:1032E000002300240025102A03D14FF02046736EDE
:1032F00009E0B2F5807F03D1194E361D336802E034
:10330000174E2436336803EA010403EAD10514B1E9
:103310000DB1012000E0002070BD102808D14FF051
:103320002042526E22EAD1024FF020435A6615E045
:10333000B0F5807F09D10A4A121D126822EAD10233
:103340004FF02043C3F8842008E0054A2432126875
:1033500022EAD1024FF02043C3F8A42070470000B6
:10336000800000A0BFFF0F0010B50446FA48844259
:1033700008D101214015FEF707FB00216015FEF77B
:1033800003FB17E0F548844208D101210015FEF740
:10339000FBFA00212015FEF7F7FA0BE0F048844213
:1033A00008D10121C803FEF7EFFA00214FF40040D5
:1033B000FEF7EAFA10BD30B502460020002350683F
:1033C000E84C20400D790C6844EA05242043506005
:1033D0009068E54C2040D1E902542C434D7944EAF1
:1033E000450420439060D06A20F470000C7C641E79
:1033F000E4B2234340EA0350D06230BD00210160B3
:10340000017141718160C16001210174704721B176
:10341000826842F00102826003E0826822F00102C9
:103420008260704721B1826842F48072826003E05A
:10343000826822F480728260704710B50023CBB29C
:103440001AB144681C43446002E044689C434460F1
:1034500010BD816841F0080181607047014600207D
:103460008A6802F008020AB1012000E000207047DB
:10347000816841F0040181607047014600208A683C
:1034800002F004020AB1012000E00020704721B1DF
:10349000826842F4A002826003E0826822F4A00203
:1034A00082607047014600208A6802F480020AB1F7
:1034B000012000E00020704710B50A4600210023DB
:1034C000416821F46041531E41EA4331416010BD1F
:1034D00021B1426842F40062426003E0426822F493
:1034E000006242607047F0B504460D46002000219E
:1034F000092D11DDE068A5F10A0606EB460707264F
:1035000006FA07F18843A5F10A0606EB460603FA18
:1035100006F10843E0600CE0206905EB450707264B
:1035200006FA07F1884305EB450603FA06F108435E
:103530002061072A0FDA606B561E06EB86071F26EE
:1035400006FA07F18843561E06EB860605FA06F1D1
:103550000843606322E00D2A0FDA206BD61F06EBCA
:1035600086071F2606FA07F18843D61F06EB860654
:1035700005FA06F10843206310E0E06AA2F10D06A7
:1035800006EB86071F2606FA07F18843A2F10D060F
:1035900006EB860605FA06F10843E062F0BD21B1AC
:1035A000826842F48012826003E0826822F4801212
:1035B000826070470146C86C80B2704766484C30E4
:1035C0000068704721B1426842F48062426003E0C3
:1035D000426822F480624260704721B1426842F43E
:1035E0008052426003E0426822F480524260704799
:1035F0000A460021816821F4E0411143816070474F
:1036000021B1826842F40042826003E0826822F4C1
:1036100000428260704721B1826842F402128260E7
:1036200003E0826822F402128260704701460020A3
:103630008A6802F400120AB1012000E000207047FD
:10364000F0B504461546002000220026092911DDA8
:10365000E068A1F10A0707EB470C072707FA0CF20D
:103660009043A1F10A0707EB470703FA07F210435B
:10367000E0600CE0206901EB410C072707FA0CF22F
:10368000904301EB410703FA07F210432061A06B5E
:10369000C0F30156EF1C06F1010CA7EB0C0707EB7A
:1036A000870C1F2707FA0CF29043EF1C06F1010C60
:1036B000A7EB0C0707EB870701FA07F21043A0639B
:1036C000F0BD10B50A4600210023816B21F44011A2
:1036D000531E41EA0351816310BD08B500230093D6
:1036E0000090009B0B440093009B1A6008BD08B536
:1036F000024600200090009201F12800009B18442F
:1037000000900098006880B208BD0A460021416818
:10371000164B194011434160704741628262704705
:103720000A460021416821F01F01114341607047A2
:1037300040B109490831096841F40001064A0832DC
:10374000116007E004490831096821F40001024AC8
:103750000832116070470000002401400028014039
:10376000003C0140FFFEF0FFFDF7F1FFFFFD3FFFD2
:103770000246002013680B400BB1012000E000203E
:103780007047CA430260704770B5024600200023AC
:1037900000240B125568CEB205EA060415681D40D8
:1037A00015B10CB1012000E0002070BD00220A120A
:1037B000D34303607047000001684FF6FE7211406A
:1037C00001600021016041608160C1608D498842D3
:1037D00008D18C490839496841F00F01894A083AF3
:1037E00051608AE087491431884208D185490839F7
:1037F000496841F0F001834A083A51607DE081490F
:103800002831884208D17F490839496841F47061FC
:103810007C4A083A516070E07A493C31884208D1CC
:1038200078490839496841F47041764A083A51604C
:1038300063E074495031884208D1724908394968B7
:1038400041F470216F4A083A516056E06D49643185
:10385000884208D16B490839496841F47001694AC6
:10386000083A516049E067497831884208D1654992
:103870000839496841F07061624A083A51603CE099
:103880006149884206D1011F096841F00F01021FFA
:10389000116032E05C491431884208D15A49091F4D
:1038A000096841F0F001584A121F116025E056499D
:1038B0002831884208D15449091F096841F47061D0
:1038C000514A121F116018E04F493C31884208D11B
:1038D0004D49091F096841F470414B4A121F11609C
:1038E0000BE049495031884207D14749091F09680F
:1038F00041F47021444A121F1160704710B5002234
:10390000026847F6F0739A430C6A8B6823430C698C
:1039100023434C6923438C692343CC6923434C6A7A
:1039200023438C6A23431A430260CB6843600B68CD
:1039300083604B68C36010BD0021016041608160FD
:10394000C160016141618161C16101624162816265
:10395000704721B1026842F00102026004E002688F
:103960004FF6FE731A40026070471AB103680B43AA
:10397000036002E003688B43036070474160704757
:103980000146486880B2704701460020002201F0DD
:1039900080531BB11C4B083B1A6802E0194B083BD3
:1039A0001A6802EA01030BB1012000E00020704711
:1039B00000F0805119B11449091F086002E0114953
:1039C00008394860704701460020002201F080530A
:1039D0001BB10D4B083B1A6802E00A4B083B1A6802
:1039E00002EA01030BB1012000E00020704700F063
:1039F000805119B10449091F086002E001490839E2
:103A000048607047080002400804024010B50446B0
:103A1000BE48844208D101218014FDF7B5FF002182
:103A2000A014FDF7B1FF16E0B948844208D1012186
:103A30000014FDF7B6FF00212014FDF7B2FF0AE0E5
:103A4000B448844207D10121C013FDF7AAFF002129
:103A5000E013FDF7A6FF10BD10B50022028802F4A6
:103A600041520B884C8823438C882343CC882343C2
:103A70000C8923434C8923438C892343CC892343DA
:103A80001A430280838B4FF2FF74234083830B8A97
:103A9000038210BD2DE9F04F85B005460C464FF06E
:103AA000000902274FF000084FF0010B0026B24634
:103AB000A88B4FF240010840A88302202884B5F863
:103AC0001C90A068022801D100BF38E0A08810B97E
:103AD0004FF0010B01E04FF0020B8D48854200D101
:103AE00000E000BF6846FDF7C8FEDDF800A0E088F2
:103AF000B0F5007F0AD14FEA1A2000EB80004000A9
:103B0000A168B0FBF1F0401D86B20BE04FEA4B100C
:103B1000BAFBF0F000EB80004000A168B0FBF1F0D0
:103B2000401D86B20A20B6FBF0F606F00108A6EBAF
:103B30000800C0F34F074FF6FF7000EA0828022F75
:103B400001DBFF2F02DD02274FF00008E08840EA8A
:103B5000080038432884A088A18908436188084365
:103B60002188084340F4006040EA0909A5F81C9048
:103B700005B0BDE8F08F0021018041808180C180C7
:103B8000018141818181C18107210182704700212A
:103B9000018041808180C18002218160002181817A
:103BA000704721B1028842F04002028004E002889E
:103BB0004FF6BF731A400280704721B1828B42F4E6
:103BC0008062828304E0828B4FF6FF331A40828347
:103BD000704730B5002400230C110125A540ABB27D
:103BE0001AB185881D43858002E085889D438580C4
:103BF00030BD1AB183880B43838002E083888B43F6
:103C000083807047818170470146888970474FF6ED
:103C1000FF62914204D0028842F48072028004E084
:103C200002884FF6FF631A400280704721B18288F4
:103C300042F00402828004E082884FF6FB731A404F
:103C40008280704702884FF2FF731A400280028818
:103C50000A4302807047018841F480510180704717
:103C600021B1028842F40052028004E002884DF63D
:103C7000FF731A400280704702460020012901D0DC
:103C8000108B00E0908A70470146088A7047B1F5B2
:103C9000804F04D1028842F48042028004E002880E
:103CA0004BF6FF731A4002807047024600201389CA
:103CB0000B400BB1012000E000207047CA43028195
:103CC0007047F0B50246002000240023002501F0D3
:103CD0000F070126BE40B4B20B1101269E40B3B2BD
:103CE000968806EA03051689264016B10DB1012013
:103CF00000E00020F0BD10B5002201F00F04012308
:103D0000A3409AB2D343038110BD000000300140AC
:103D100000380040003C004001460020FE4A106888
:103D200000F03800084310607047FB49096821F033
:103D30000801F94A11601146096801431160704792
:103D4000F549096821F01001F34A1160114609682C
:103D5000014311607047F148EF494860F0484860FE
:103D60007047EE48EC494860ED4848607047EA48C3
:103D7000006940F08000E84908617047E648006942
:103D800040F08000E449086170470420E249C968B6
:103D900001F0010109B101200EE0DF49C96801F01D
:103DA000040109B1022007E0DB49C96801F01001F4
:103DB00009B1032000E00420704700B50246042347
:103DC000FFF7E3FF034603E0FFF7DFFF0346521E62
:103DD000012B01D1002AF7D102B90523184600BDF5
:103DE00030B5044604254FF43020FFF7E6FF0546C2
:103DF000042D17D1C848006940F00200C649086187
:103E000008464461006940F0400008614FF43020EA
:103E1000FFF7D3FF0546C048006941F6FD71084031
:103E2000BD490861284630BD10B504244FF4302048
:103E3000FFF7C3FF0446042C16D1B748006940F0D1
:103E40000400B54908610846006940F04000086177
:103E50004FF43020FFF7B1FF0446AF48006941F648
:103E6000FB710840AC490861204610BD00B5024610
:103E70000423FFF78AFF034603E0FFF786FF0346AC
:103E8000521E012B01D1002AF7D102B90523184691
:103E900000BD10B504244FF43020FFF7E7FF0446BF
:103EA000042C16D19C48006940F004009A4908612E
:103EB0000846006940F0400008614FF43020FFF7E9
:103EC000D5FF04469448006941F6FB7108409249C9
:103ED0000861204610BD00208F49C96901F0020128
:103EE00009B1012000E00020704730B5A525042469
:103EF000FFF7F1FF00B100254FF43020FFF75DFF21
:103F00000446042C3AD185488349886084488860F7
:103F10000846006940F0200008610846006940F04A
:103F2000400008614FF43020FFF747FF0446042C9F
:103F30001BD17948006941F6DF7108407649086174
:103F40000846006940F01000086176480580E002EC
:103F5000FFF733FF0446052C10D06F48006941F687
:103F6000EF7108406C49086108E0052C06D06A48EA
:103F7000006941F6EF71084067490861204630BD8D
:103F800078B506460C46042500200090E802FFF7AD
:103F900014FF0546042D24D15F48006940F001005C
:103FA0005D4908613480E802FFF707FF0546042DEC
:103FB00010D1B01C0090200C00990880E802FFF797
:103FC000FCFE05465448006941F6FE71084052491E
:103FD000086106E05048006941F6FE7108404E490C
:103FE0000861284678BD70B504460D460426F002E7
:103FF000FFF7E3FE0646042E11D14748006940F062
:104000000100454908612580F002FFF7D6FE06460B
:104010004148006941F6FE7108403F490861304659
:1040200070BD70B505460E460424E002FFF7C5FEDC
:104030000446042C17D139483749886038488860CD
:104040000846006940F0100008612E80E002FFF78A
:10405000B4FE0446052C06D02F48006941F6EF71E6
:1040600008402D490861204670BD2DE9F043044603
:104070004FF6FF763746B046B1460425E443E6B234
:10408000C4F30727C4F307484FEA1469E802FFF7AF
:1040900094FE0546042D49D120481F4988602048D8
:1040A00088600846006940F010000861FF2E06D0C5
:1040B0001C4808300680E802FFF77FFE0546042D05
:1040C00008D1FF2F06D017480A300780E802FFF713
:1040D00074FE0546042D0AD1B8F1FF0F07D0114830
:1040E0000C30A0F80080E802FFF767FE0546042DBB
:1040F0000AD1B9F1FF0F07D00A480E30A0F800909E
:10410000E802FFF75AFE0546052D0FD00248006968
:1041100041F6EF71084007E00020024023016745A7
:10412000AB89EFCD00F8FF1F664908612846BDE85E
:10413000F08330B5054604244FF43020FFF73DFEF0
:104140000446042C41D160485E4988605F4888601D
:104150000846006940F0200008610846006940F008
:10416000400008614FF43020FFF727FE0446042C7E
:1041700022D15448006941F6DF7108405149086175
:104180000846006940F0100008611DB10020504948
:10419000088002E0A5204E4908804FF43020FFF748
:1041A0000CFE0446052C10D04648006941F6EF711C
:1041B00008404449086108E0052C06D041480069E0
:1041C00041F6DF7108403F490861204630BDF0B537
:1041D00005460E46174604243B483A4988603B484A
:1041E0008860E002FFF7E9FD0446042C19D1354848
:1041F000006940F010003349086147F0F80030438F
:1042000028433349891C0880E002FFF7D6FD0446A5
:10421000052C06D02B48006941F6EF71084029496A
:1042200008612046F0BD2748C069800870472548CE
:10423000006A704700202349096801F0200109B194
:10424000012000E00020704729B11E4A1269024394
:104250001C4B1A6104E01B4A12698243194B1A6114
:10426000704701460020012908D1164AD26902F0A0
:1042700001020AB1012008E0002006E0114AD268DC
:104280000A400AB1012000E0002070470D49C860D3
:10429000704704200B49C96801F0010109B10120F0
:1042A0000EE00849C96801F0040109B1022007E0E5
:1042B0000449C96801F0100109B1032000E004209D
:1042C000704700000020024023016745AB89EFCD15
:1042D00000F8FF1F70B504460D4616462B462246D1
:1042E0002946204600F0FFFC304600F0B0FC70BDCF
:1042F0002DE9FF4F85B081468A4600200390834612
:104300000798A0EB09050898A0EB0A06CDF80490E1
:10431000CDF808A0002D01DD012705E00DB900272B
:1043200002E04FF0FF376D42002E02DD4FF0010832
:1043300006E016B94FF0000802E04FF0FF38764271
:10434000B54201DD2C4600E03446002004901EE01A
:10435000129ADDE90101FFF7BDFF0398284403909D
:10436000B3440398A04206DD0398001B0390019814
:10437000384480B20190A34505DDABEB040B0298F5
:10438000404480B202900498401C80B20490611CAA
:1043900004988842DCDD09B0BDE8F08F2DE9F843D0
:1043A00005460E4617469846089C33463A4631461F
:1043B00028460094FFF79CFF43462A46314628468C
:1043C0000094FFF795FF43463A464146284600943D
:1043D000FFF78EFF43463A46314638460094FFF7D2
:1043E00087FFBDE8F88370B504460D461646324691
:1043F00029462046FFF76EFF70BD2DE9F05F0746A6
:104400000D4616469846AB4600243BE0102C05DAD4
:10441000BA4901EB461010F8049009E0012000EBC6
:104420004600B64901EB0011A4F1100011F800900C
:104430004FF0000A20E009F0800028B142462946EA
:104440003846FFF7D0FF05E048F2304229463846AB
:10445000FFF7C9FF4FEA49604FEA1069681C85B24F
:10446000A5EB0B00102803D15D46781C87B206E04F
:104470000AF1010000F0FF0ABAF1080FDBDB00BF10
:10448000601CC4B2202CC1DBBDE8F09F2DE9F05FB9
:1044900007460D4616469846AB46002450E0182CB9
:1044A00009DA06EB460000EB4000954901EBC0003D
:1044B00010F804901AE0302C0CDA06EB4600401C91
:1044C00000EB40008E4901EBC001A4F1180011F887
:1044D00000900BE006EB4600801C00EB4000884992
:1044E00001EBC001A4F1300011F800904FF0000A78
:1044F00020E009F0800028B1424629463846FFF7FF
:1045000072FF05E048F2304229463846FFF76BFF5C
:104510004FEA49604FEA1069681C85B2A5EB0B00B1
:10452000182803D15D46781C87B206E00AF1010025
:1045300000F0FF0ABAF1080FDBDB00BF601CC4B259
:10454000482CACDBBDE8F09F70B53220054606462E
:10455000002415E04FF47843224632213046FFF71D
:104560004CFF4FF47843224646212846FFF78EFF42
:1045700006F11000C6B205F11800C5B2601CC4B245
:10458000072CE7DB70BD2DE9F04704460D461646C3
:104590001F46DDF82080B44201DCBD4201DDBDE8EC
:1045A000F0873B4632462946204600F09CFB301BF4
:1045B000401C84B2781B401C85B20BE0A94602E087
:1045C000404600F044FB5FEA0900A9F101011FFA2F
:1045D00081F9F5D12000A4F101018CB2EED100BF28
:1045E000DDE72DE9F04104460D46174605F1010CC3
:1045F0001FFA8CF304F1010C1FFA8CF2A5F1010CE7
:104600001FFA8CF1A4F1010C1FFA8CF000F06BFB87
:10461000002604E0384600F01AFB701CC6B2092ED2
:10462000F8DB211D8AB2211F88B22B46294600F0F3
:104630005AFB002604E0384600F009FB701CC6B2A5
:10464000092EF8DB281D83B2281F81B2224620469E
:1046500000F049FB002604E0384600F0F8FA701C30
:10466000C6B2092EF8DBBDE8F0812DE9F05F044603
:104670000E46154698463BE02878203800F0FF0AA1
:1046800006F10F0083B2E01D82B23146204600F0F1
:104690002AFB00271FE01B4800EB0A1010F807B0A8
:1046A0004FF0000912E00BF08000802803D1404653
:1046B00000F0CDFA02E00A9800F0C9FA4FF6FF7058
:1046C00000EA4B0B09F1010000F0FF09B9F1080FF6
:1046D000E9DB781CC7B2102FDDDB6D1C04F108008C
:1046E00084B2B4F5C47F03DD002406F1100086B265
:1046F00028780028C0D1BDE8F09F0000968A000805
:10470000768C00089684000800B58DB0012108461B
:10471000FDF713F95248FFF74FF8524802905248FC
:104720000390002004900A2005900020069080202D
:104730000790400008908000099000200A904FF4F4
:1047400000500B9000200C9002A94548FFF7D6F8C6
:1047500001214348FFF7FDF84FF4A060FCF770FD1E
:104760000B208DF8040002208DF8050000208DF844
:10477000060001208DF8070001A8FCF766FD012264
:1047800002213748FFF7F1F80DB000BD00B587B042
:104790000420ADF8040000208DF8070001A933487B
:1047A000FCF71CFE01214FF40170FDF7D3F84FF424
:1047B0000040FDF733F82B484C38FEF7D5FD0020BC
:1047C00002908DF80C008DF80D004FF460200490DD
:1047D0000020059001208DF8180002A921484C38CE
:1047E000FEF7E9FD0023012202211E484C38FEF7A6
:1047F0007AFE01211B484C38FEF714FE01211948AE
:104800004C38FEF704FE17484C38FEF722FE00BF76
:1048100014484C38FEF722FE0028F9D111484C38D4
:10482000FEF726FE00BF0F484C38FEF726FE002894
:10483000F9D107B000BD0021002205E00A4830F898
:1048400012000144501CC2B20A2AF7DB4FF4A570D3
:10485000484340F6FF73B0FBF3F188B270470000A5
:10486000080002404C24014084010020000801405F
:1048700000B585B001212020FDF76CF80121022050
:10488000FDF775F800231A4619469848FEF71FF8F9
:104890000420ADF8040003208DF8060004208DF8F4
:1048A000070001A99248FCF799FD0020ADF8080027
:1048B000ADF80A004FF6FF70ADF80C000020ADF81F
:1048C0000E0002A98948FDF70FFC0022012187484C
:1048D000FDF781FF00218548FDF762FF1D208DF85F
:1048E000000001208DF801008DF802008DF8030012
:1048F0006846FCF7AAFC05B000BD10B501217B4855
:10490000FEF717FAA0B101217848FEF723FA79489B
:104910000088401C77490880084600887649098845
:10492000401A022804D1FCF743F90446FCF7A4F925
:1049300010BD00B585B001214803FDF70BF801213A
:104940001020FDF707F84020ADF8040003208DF893
:10495000060028208DF8070001A96848FCF73EFDF5
:104960004FF48070ADF8040003208DF80600482055
:104970008DF8070001A96148FCF730FD6048FDF79C
:10498000DFFA0020ADF808000120ADF8100000208B
:10499000ADF80A00ADF80E000120ADF80C0002A938
:1049A0005748FDF734FE0820ADF808000120ADF8A7
:1049B00010000220ADF80A000020ADF80E00012022
:1049C000ADF80C0002A94E48FDF721FE00220A2195
:1049D0004B48FDF700FF2E208DF8000000208DF8D9
:1049E000010001208DF802008DF803006846FCF7F5
:1049F0002CFC00214248FDF7D3FE05B000BD10B5E8
:104A0000FCF75AF802213E48FEF793F948B1FCF74B
:104A1000CFF80446FCF79DF802213948FEF79AF9D1
:104A20000DE008213648FEF784F940B1FCF7C0F8E4
:104A30000446FCF78EF808213148FEF78BF910BDCB
:104A400010B5FFF715FFFFF774FF10BD10B5012279
:104A500011462648FDF7BFFE01212448FDF7A0FEC0
:104A600001220A212648FDF7B6FE01212448FDF760
:104A700097FE2448007840F0040022490870084658
:104A8000007840F08000087010BD10B500220121B0
:104A90001648FDF7A0FE00211448FDF781FE002016
:104AA00012492431088013490880174908801749A2
:104AB000088017490880104908801649088016495F
:104AC000088000220A210E48FDF785FE00210C48CF
:104AD000FDF766FE0B48007800F0FB0009490870FE
:104AE0000846007800F07F00087010BD0004004008
:104AF00000140140460000204E000020001001403C
:104B00000034014044000020480000204A000020FA
:104B10004C000020500000205200002008B5012168
:104B20004FF4B070FCF716FF4CF23370ADF8000094
:104B300018208DF8030003208DF802006946FE4816
:104B4000FCF74CFC4FF68070ADF8000018208DF893
:104B5000030003208DF802006946F848FCF73EFC8C
:104B600041F20100ADF8000018208DF80300032089
:104B70008DF802006946F248FCF730FC08BD00B52C
:104B80009DB001210802FCF7D8FE0120079000200B
:104B900008900F20099000200A900B900C900D9027
:104BA00015200090019005200290002003900490B1
:104BB0000590069006200E9000200F901090102077
:104BC00011900020129014901390159016904FF4AD
:104BD00080501790002018904FF4804019900020CA
:104BE0001A9007A81B90CDF870D00EA8FEF702F916
:104BF00001210620FEF766FA1DB000BD0112490032
:104C0000D04A11800106C90D118070470112490078
:104C1000CC4A921C11800106C90D1180704710B555
:104C200004460B462046FFF7E9FF1846FFF7EEFF64
:104C300010BD10B501460023CA0AC1F3451401F0A6
:104C40001F03500340EA841040EA430010BD30B512
:104C5000054600242846FFF7ECFF0446C4F34F2026
:104C6000B849891C08800C8030BDB649891C098868
:104C700048104FF6FF7101EA0020B249891C0988EB
:104C800040EA6100704700B50346B3B90120FFF761
:104C9000B5FF4FF48070FFF7B9FF0320FFF7AEFFB9
:104CA00041F23000FFF7B2FF4FF4C870A6494880C8
:104CB000F02008800020887114E00120FFF79EFF9B
:104CC0000020FFF7A3FF0320FFF798FF41F2380011
:104CD000FFF79CFFF0209C4948804FF4C870088083
:104CE0000120887100BD70B506460C4615469648F1
:104CF000807950BB4FF40470FFF780FF3046FFF718
:104D000085FF40F21120FFF779FF2846FFF77EFF6D
:104D100040F21220FFF772FF2046FFF777FF40F2C4
:104D20001320FFF76BFF1846FFF770FF4FF400707A
:104D3000FFF764FF3046FFF769FF40F20120FFF7FD
:104D40005DFF2046FFF762FF29E040F21220FFF7E7
:104D500055FF3046FFF75AFF40F21320FFF74EFF92
:104D60002846FFF753FF4FF40470FFF747FF204634
:104D7000FFF74CFF40F21120FFF740FF1846FFF706
:104D800045FF40F20120FFF739FF3046FFF73EFFB5
:104D90004FF40070FFF732FF2046FFF737FF40F275
:104DA0000220FFF72BFF70BD70B5064666484088AD
:104DB000401E83B264480088401E82B2002108462B
:104DC000FFF791FF00240CE0002504E03046FFF7D8
:104DD0003EFF681C85B25C484088A842F6DC601C37
:104DE00084B259480088A042EEDC70BD10B5FFF7D0
:104DF00095FEFFF7C4FE3220FCF782F90020FFF792
:104E0000FDFEFFF732FF50498880084681884FA099
:104E100003F0B2F90020FFF7F1FE0020FFF7EEFEED
:104E20000A20FCF76DF90020FFF7E8FE0020FFF7ED
:104E3000E5FE0020FFF7E2FE0020FFF7DFFEA420E2
:104E4000FFF7DCFE0120FFF7E1FE0A20FCF758F92E
:104E50006020FFF7D3FE4FF41C50FFF7D7FE082069
:104E6000FFF7CCFE40F60800FFF7D0FE4FF440708D
:104E7000FFF7C4FE40F20910FFF7C8FE40F2013010
:104E8000FFF7BCFE47F60A60FFF7C0FE40F20230B3
:104E9000FFF7B4FE40F20470FFF7B8FE40F20330B3
:104EA000FFF7ACFE40F61110FFF7B0FE4FF4417073
:104EB000FFF7A4FE4FF40450FFF7A8FE40F20530C0
:104EC000FFF79CFE41F20910FFF7A0FE40F206300A
:104ED000FFF794FE47F20740FFF798FE40F20730D5
:104EE000FFF78CFE40F60E20FFF790FE4FF4427065
:104EF000FFF784FE40F60110FFF788FE40F209300C
:104F0000FFF77CFE2120FFF781FE1020FFF776FEE1
:104F10001020FFF77BFE1120FFF770FE40F2022009
:104F2000FFF774FE1220FFF769FE4FF44070FFF7A1
:104F30006DFE132012E00000001401400018014033
:104F400000200140FE07006C38000020204C434444
:104F50002049443A25780D0A00000000FFF74EFE74
:104F60000720FFF753FE0A20FCF7CAF84FF48070C1
:104F7000FFF744FE0020FFF749FE40F20110FFF763
:104F80003DFE0720FFF742FE4FF48170FFF736FE2B
:104F90000020FFF73BFE40F20310FFF72FFE00203A
:104FA000FFF734FE4FF42070FFF728FE0020FFF7D4
:104FB0002DFEC820FCF7A4F84FF48070FFF71EFE0A
:104FC0004FF44C70FFF722FE40F20110FFF716FE7F
:104FD00040F24720FFF71AFE3220FCF791F84FF419
:104FE0008170FFF70BFE4DF2B010FFF70FFE32207D
:104FF000FCF786F840F20310FFF700FE4FF48050F4
:10500000FFF704FE4FF42070FFF7F8FD4FF4464021
:10501000FFF7FCFDC820FCF773F80120FFF7EEFD59
:105020004FF48070FFF7F2FD0220FFF7E7FD4FF429
:105030000070FFF7EBFD0320FFF7E0FD41F23000C9
:10504000FFF7E4FD0920FFF7D9FD0120FFF7DEFDA2
:105050000A20FFF7D3FD0820FFF7D8FD0C20FFF74B
:10506000CDFD0020FFF7D2FD0D20FFF7C7FD00208A
:10507000FFF7CCFD0E20FFF7C1FD3020FFF7C6FD86
:105080002020FFF7BBFD0020FFF7C0FD2120FFF728
:10509000B5FD0020FFF7BAFD2920FFF7AFFD522034
:1050A000FFF7B4FD5020FFF7A9FD0020FFF7AEFD8C
:1050B0005120FFF7A3FDEF20FFF7A8FD5220FFF7D7
:1050C0009DFD0020FFF7A2FD5320FFF797FD40F262
:1050D0003F10FFF79BFD6120FFF790FD0020FFF7D9
:1050E00095FD6A20FFF78AFD0020FFF78FFD8020E5
:1050F000FFF784FD0020FFF789FD8120FFF77EFD8B
:105100000020FFF783FD8220FFF778FD5F20FFF787
:105110007DFD9320FFF772FD40F20750FFF776FD0B
:105120000720FFF76BFD4FF48070FFF76FFD322013
:10513000FBF7E6FF2220FFF761FD0020FFF7A3FD4C
:105140000020FFF731FE10BD2DE9F04304460D4667
:1051500016461F46DDF81C80B44201DCBD4201DD6D
:10516000BDE8F0833B46324629462046FFF7BBFDAB
:10517000301B401C84B2781B401C85B20BE0A94652
:1051800002E04046FFF763FD5FEA0900A9F1010173
:105190001FFA81F9F5D12000A4F101018CB2EED102
:1051A00000BFDDE72DE9F84F06460F4690469946C9
:1051B000DDF828B0A8EB0600401C1FFA80FAA9EB26
:1051C0000700401C80B200904B46424639463046AC
:1051D000FFF789FD00240DE0002507E004FB0A51DC
:1051E0003BF81100FFF733FD681C85B25545F5DB30
:1051F000601C84B200988442EEDBBDE8F88F30B5C5
:1052000004460D462B46224629462046FFF76BFDF5
:10521000F9480088FFF71BFD30BD70B504460D4608
:1052200016462B46224629462046FFF75CFD3046AF
:10523000FFF70DFD70BD2DE9F84F05460E464FF006
:10524000000AD34600200090EC480088A84203DD05
:10525000EA484088B04202DC0020BDE8F88F3346BF
:105260002A4631462846FFF73EFD40F20220FFF76E
:10527000C5FCE3480488640200880443E0480488CD
:10528000640200880443670BC4F38518C4F344091F
:10529000F80240EA481040EA09001FFA80FA504636
:1052A000DBE72DE9FF4F84B081468A46002003905A
:1052B00002900698A0EB09050798A0EB0A06CDF826
:1052C0000490CDF800A0002D01DD012705E00DB907
:1052D000002702E04FF0FF376D42002E02DD4FF055
:1052E000010806E016B94FF0000802E04FF0FF3861
:1052F0007642B54201DD2C4600E034464FF0000B0B
:1053000021E0009A91B2019A90B2FFF778FF0398DA
:10531000284403900298304402900398A04205DD8F
:105320000398001B03900198384401900298A04212
:1053300005DD0298001B02900098404400900BF19C
:1053400001001FFA80FB601C8345DADD08B0BDE870
:10535000F08F2DE9FF4F84B081468A4600200290ED
:1053600083460698A0EB09050798A0EB0A06CDF83E
:105370000490CDF800A0002D01DD012705E00DB956
:10538000002702E04FF0FF376D42002E02DD4FF0A4
:10539000010806E016B94FF0000802E04FF0FF38B0
:1053A0007642B54201DD2C4600E0344600200390F1
:1053B0001EE0009A91B2019A90B2119AFFF72DFF68
:1053C000029828440290B3440298A04205DD029856
:1053D000001B0290019838440190A34504DDABEB1B
:1053E000040B0098404400900398401C80B2039046
:1053F000611C03988842DCDD08B0BDE8F08FF0B591
:1054000004460D46174605F1010C1FFA8CF304F112
:10541000010C1FFA8CF2A5F1010C1FFA8CF1A4F11A
:10542000010C1FFA8CF0FFF75EFC002604E0384602
:10543000FFF70DFC701CC6B2092EF8DB211D8AB2E5
:10544000211F88B22B462946FFF74DFC002604E0B9
:105450003846FFF7FCFB701CC6B2092EF8DB281D8E
:1054600083B2281F81B222462046FFF73CFC00266B
:1054700004E03846FFF7EBFB701CC6B2092EF8DBE0
:10548000F0BDF0B504460D4616461F462B46324683
:1054900029462046FFF705FF3B462246294620467F
:1054A000FFF7FFFE3B46324639462046FFF7F9FE3E
:1054B0003B46324629463046FFF7F3FEF0BD2DE964
:1054C000F04306460F469046002445460320A0EBD5
:1054D00048093CE07A1B91B2321990B2FFF78FFE77
:1054E0003A1B91B2721990B2FFF789FE3A1991B244
:1054F000721990B2FFF783FE7A1991B2321990B205
:10550000FFF77DFE7A1991B2321B90B2FFF777FE5A
:105510003A1991B2721B90B2FFF771FE7A1B91B2E9
:10552000321B90B2FFF76BFE3A1B91B2721B90B226
:10553000FFF765FE641CB9F1000F03DAA000801DBF
:10554000814404E0601B80000A3081446D1EAC423F
:10555000C0DDBDE8F0832DE9F84F80460F461646C2
:105560001C46BB462046E31704EB5373DB10214671
:105570004FEAE47C04EB5C7C4FEAEC0CA4EBCC0C33
:10558000BCF1000F02D04FF0010C01E04FF0000C15
:105590006344224604EBD27C4FEA6C0C03FB0CF311
:1055A000DBB20093A6F12000C6B200256DE00C2C02
:1055B00007D106EB4600134901EB800010F8059077
:1055C0002AE0102C05D1104800EB061010F80590C9
:1055D00022E0182C07D106EBC6000C4901EB800035
:1055E00010F8059018E0202C14D1094800EBC610E3
:1055F00010F8059010E00000340000203800002072
:105600000008006CDE8D00085292000842980008E5
:105610009EA50008BDE8F88F4FF0000A2FE009F0C2
:10562000800030B1E348028839464046FFF7F5FD77
:1056300007E00A9828B9E048028839464046FFF753
:10564000ECFD4FEA49604FEA1069781C87B2DB48ED
:105650004088B84200DCDDE7A7EB0B00A0420AD18E
:105660005F4608F101001FFA80F8D44800884045E1
:1056700000DCCFE706E00AF1010000F0FF0ABAF112
:10568000080FCCDB00BF681CC5B2009885428EDBDA
:1056900000BFBFE710B50246012000E050430B00F9
:1056A000A1F10104E1B2F9D110BD2DE9FF4F81B0A4
:1056B000074691461E460E9D4FF0000A002439E031
:1056C000301B401EC1B20A20FFF7E4FFB9FBF0F027
:1056D0000A21B0FBF1F201FB1208BAF1000F16D15A
:1056E000701EA04213DDB8F1000F0ED10020AB46B2
:1056F00005EBDB71491001FB0471009088B22B4669
:1057000020220299FFF727FF12E04FF0010A002044
:10571000AB4605EBDB71491001FB0471009088B2C8
:1057200008F13001CAB22B460299FFF714FF00BFFF
:10573000601CC4B2B442C3DB05B0BDE8F08F2DE9F4
:10574000FF4F82B0064692461F46DDE90F48002013
:10575000019000254DE0781B401EC1B20A20FFF7E2
:1057600099FFBAFBF0F00A21B0FBF1F201FB12093C
:10577000019850BB781EA84227DDB9F1000F22D155
:1057800008F0800078B108F00100A34604EBDB715B
:10579000491001FB0561009088B22346302203992D
:1057A000FFF7D9FE0EE008F00100A34604EBDB7121
:1057B000491001FB0561009088B22346202203991D
:1057C000FFF7C9FE13E00120019008F00100A34695
:1057D00004EBDB71491001FB0561009088B209F10F
:1057E0003001CAB223460399FFF7B5FE00BF681C1B
:1057F000C5B2BD42AFDB06B0BDE8F08F2DE9F8477A
:1058000004460D4690469946DDE9096704F0FF0A13
:1058100008EB04001FFA80F809EB05001FFA80F975
:1058200016E0444502DB5446A81985B24D4500DB1D
:1058300014E0002000903A78334629462046FFF7CE
:105840008AFE304606EBD07104EB61018CB27F1CFE
:1058500038787E2802DC38782028E2DA00BFBDE8FC
:10586000F8872DE9F84F04460F461546A3460097E2
:1058700060E0002657E006EB8600C0EB861050493A
:1058800011F81000297888424BD106EB8600C0EB56
:1058900086104B4901EB400040786978884240D13E
:1058A0004FF000083AE006EB8600C0EB8610444952
:1058B00001EB4000801C10F808A04FF0000926E022
:1058C0000AF08000802806D13A48028839462046EE
:1058D000FFF7A3FC05E03848028839462046FFF769
:1058E0009CFC4FF6FF7000EA4A0A601C84B2A4EBED
:1058F0000B00202807D15C46781C87B20098381A24
:105900001D2800D1009F09F1010000F0FF09B9F145
:10591000080FD5DB08F1010000F0FF08B8F1740FA3
:10592000C1DB701CC6B2142EA5DBAD1C04F1200037
:1059300084B2A346287800289BD1BDE8F88F2DE9D2
:10594000F04F8046894615461E46DDF824A0002704
:105950000024A34609EB0600401E83B208EB0500B5
:10596000401E82B249464046FFF7BDF905FB06F0EE
:105970004FEA400B00BF601C1AF800704FF6FF7032
:1059800000EA07271AF8040007433846FFF75FF9D3
:10599000A41C5C45EFDBBDE8F08F00B540F2CF10F2
:1059A00004490880FFF700FA4FF6FF7001490880AC
:1059B00000BD000034000020360000203800002028
:1059C0001ED5000800B597B001214FF4F070FBF729
:1059D000C1FF01210802FBF7B0FF03208DF85A0038
:1059E0004FF48060ADF8580018208DF85B0016A9C0
:1059F0003A48FBF7F3FC0320ADF8580016A93848E5
:105A0000FBF7ECFC3020ADF8580016A93548FBF741
:105A1000E5FC4FF60370ADF8580016A93148FBF7C6
:105A2000DDFC4FF68070ADF8580016A92C48FBF746
:105A3000D5FC4FF23F00ADF8580016A92A48FBF7F5
:105A4000CDFC3F20ADF8580016A92448FBF7C6FC52
:105A50000020009001900820029000200390049004
:105A600005900690042007900020089009901020CF
:105A70000A9000200B900D900C900E900F904FF418
:105A8000805010900020119012901390CDF850D0BB
:105A9000CDF854D007A8FDF7ADF901210420FDF79A
:105AA00011FB17B000BD10B5C1F3150106E010F8E9
:105AB000014B4FF0D0435C54491C521E002AF6D1D2
:105AC00010BDC1F3150106E04FF0D0435B5C00F858
:105AD000013B491C521E002AF6D1704700200140AC
