:020000040800F2
:10000000B02900205D0D000897090008670D000861
:10001000990900089D090008A109000800000000D6
:10002000000000000000000000000000A50900081A
:10003000A709000800000000A9090008AB09000892
:10004000770D0008770D0008770D0008770D000880
:10005000770D0008770D0008770D0008770D000870
:1000600017080008230800082F080008770D00086B
:10007000770D0008770D0008770D0008770D000850
:10008000770D0008770D0008770D0008AD0900080E
:10009000B5090008770D0008770D0008770D0008F6
:1000A000770D0008770D0008770D0008770D000820
:1000B000770D0008C33C0008770D0008770D000895
:1000C000770D0008770D0008770D0008770D000800
:1000D000770D00083F0D0008770D0008770D000828
:1000E000770D0008770D0008770D0008770D0008E0
:1000F000770D0008770D0008770D0008770D0008D0
:10010000770D0008770D0008FF3D0008770D000807
:10011000770D0008770D0008770D0008770D0008AF
:10012000770D0008770D0008770D0008770D00089F
:10013000DFF80CD007F0E2F900480047830600081A
:10014000B029002010B504F085F8002004F060F814
:100150004FF47840FC4908800A20FC490880FC499B
:10016000088010BD38B5044600200090F64803888A
:100170002246F64801880A2003F0C5FCF3480088AF
:100180001430F249088008460088B0F5967F01DDFA
:100190000A2008800A2000F053FD38BD13B582B054
:1001A0000C4602980A280ED1E9490880E7480088E1
:1001B0001430E649088008460088B0F5967F12DDC5
:1001C0000A2008800FE000200090DF48038802AA80
:1001D000DE480188DE48008803F095FCDC48008892
:1001E0000830DB490880029804B010BDF8B5054618
:1001F0000E462F4603240FE00A2097FBF0F100FB88
:1002000011703030C1B2601E0DF800100A2097FB4B
:10021000F0F0C7B2601EC4B2002CEDDC002406E092
:100220001DF80400302800D003E0601CC4B2022C8A
:10023000F6DB00BFC4F103020DEB0401304607F00A
:1002400009F9C4F10300C0B2F8BD2DE9FC4105462F
:100250000E462F4605240FE00A2097FBF0F100FB25
:1002600011703030C1B2601E0DF800100A2097FBEB
:10027000F0F087B2601EC4B2002CEDDC002406E072
:100280001DF80400302800D003E0601CC4B2042C28
:10029000F6DB00BFC4F105020DEB0401304607F0A8
:1002A000D9F8C4F10500C0B2BDE8FC8110B5044620
:1002B0000121042001F0EEF83CB1A648006880B2AC
:1002C00020F00200A349086014E0A248006880B250
:1002D00040F002009F4908609F48006820F47F209A
:1002E0009D4908600846006840F44C3008600020D2
:1002F0009A49086010BD10B5482000F063FC4FF427
:10030000A06000F03DFDFFF71DFF95A0FFF72AFF5D
:1003100003F0D3FD99A0FFF725FF00F08EFA9EA011
:10032000FFF720FF04F071FF10B1A3A0FFF71AFF41
:10033000A5A0FFF717FF04F079FDA6A007F02AF9A2
:1003400000F00AFBA8A007F025F9642000F078FC73
:100350000020FFF7ABFF4FF42F7000F071FC01207D
:10036000FFF7A4FF05F093F905F086F906F044FACB
:10037000A4A007F00FF910BD0021A64A116051603A
:10038000A54A116051600020A4490860A449086092
:10039000A4490860A4490860A4490860704770B582
:1003A00006460D461446402C00D9402422462946D4
:1003B000012005F049FCC0B270BD70B597480568D2
:1003C0000026012006F0AAFC202801D0012070BDE3
:1003D000934800682C1A402C00D9402422469048AB
:1003E0000168934804F0A1FD224691490120FFF7DE
:1003F000D6FF06468A4800683044894908600020D4
:10040000E5E770B5874806680025012006F086FC00
:10041000202801D0012070BD81480088C0F3080069
:1004200020B17F48007800F03F0038B17C48006878
:10043000012202EB50217E4804F0B1FF78480068A9
:10044000012101EB502076490968C1EB4024402C82
:1004500000D9402472480088C0F30800744A81180B
:1004600022460120FFF79BFF05466D48006828449F
:100470006B4908600020CEE770B56848006869499C
:100480000968441AB4F5005F01D9202501E0C4F3DE
:1004900047256C02224663480168664804F045FD22
:1004A00060480068012202EB50212A46614804F0AE
:1004B000AEFF40B15B480068012202EB50212A46A2
:1004C0005C4804F0A4FF5748006820445549086080
:1004D00070BD10B5A0B0002457A007F05BF85CA079
:1004E00007F058F855208DF840000122002110A88F
:1004F00004F00DFD01221146684604F016FD9DF83A
:10050000001059A007F046F801220221684604F0C5
:100510000CFD9DF8001054A007F03CF801220321C7
:10052000684604F002FD9DF800104FA007F032F875
:1005300001220421684604F0F8FC9DF800104AA04E
:1005400007F028F898E000003400002002000020A6
:1005500004000020405C004004080140B00121423A
:10056000496E697469616C697A65204C4344206600
:10057000696E69736865642100000000496E6974E2
:1005800069616C697A652054494D2066696E6973AA
:100590006865642100000000496E697469616C69D6
:1005A0007A65204578697420494F2066696E6973C1
:1005B0006865642100000000534420436172642098
:1005C0004572726F722100005344204361726420AF
:1005D0004F4B2100496E697469616C697A652053DB
:1005E00072616D210A0000004C6576656C20636FB6
:1005F0006E76657273696F6E2066696E69736821C5
:100600000A0000005553422046696E6973682E2E19
:100610002E0A000048000020500000206400002046
:10062000680000206C000020580000205C000020C2
:100630009401002094030020537461727420546567
:100640007374205372616D2E2E2E210A000000005B
:100650005374617274205772697465205372616DAE
:100660002E2E2E210A00000020205352414D2069D9
:100670006E2025780A00000017A006F08BFF20B03E
:1006800010BD00BF00BF00BFFFF735FEFFF774FECF
:1006900000F089F81449087003F015FC13A006F067
:1006A00079FF18E01448006814490968401AB0F549
:1006B000007F01D9FFF7E0FE114800680F49096883
:1006C000884207D0012006F029FB202800D002E054
:1006D000FFF797FE00BFE5E7546573742066696E07
:1006E000697368210000000070000020537461727B
:1006F00074202E2E2E210A00640000206C000020A1
:100700006800002070B5AD4802F0A1F8AC4A12684C
:100710004FF48033A2FB0332C41842F10005A9490B
:1007200003C9201A75EB010004D24FF48033E4189A
:1007300045F100052046294670BDF8B5074600265C
:10074000A148D0E900309F49D1E900219C1A60EB13
:1007500001050EE0701CC6B2E0B200909B48006834
:1007600081190122684604F0D2FB200A40EA0564A0
:100770002D0A002184EA010069400843EAD1B81932
:10078000C0B20090012291480168684604F0BFFBA6
:100790008E480068401C30448C4908608A4903C96F
:1007A000884A03C2F8BD10B500240421884800F02F
:1007B00048FC08B144F010040821854800F041FCD1
:1007C00008B144F020040121824800F03AFC08B14D
:1007D00044F04004204610BD70B505460C46FFF7B6
:1007E00091FF794A03C2284601F041F9FFF7DBFF88
:1007F00079490870084600782040784909782140F6
:10080000884207D074480078FFF797FF7248007855
:100810007249087070BD10B510210420FFF7DCFF8D
:1008200010BD10B520210820FFF7D6FF10BD10B570
:1008300040211020FFF7D0FF10BD1FB5012140203F
:1008400000F028FE08208DF8040002208DF8050035
:1008500000208DF8060001208DF8070001A800F0A7
:1008600094FA09208DF8040002208DF8050000207C
:100870008DF8060001208DF8070001A800F085FA28
:100880000A208DF8040002208DF8050000208DF864
:1008900006008DF8070001A800F077FA0420ADF8F3
:1008A000000003208DF8020004208DF80300694643
:1008B000474800F033FB0820ADF8000003208DF816
:1008C000020004208DF803006946414800F026FB31
:1008D0001020ADF8000003208DF8020004208DF8F0
:1008E000030069463A4800F019FB0221042000F099
:1008F0002BFC0420029000208DF80C000C208DF8B9
:100900000D0001208DF80E0002A801F039F8032136
:10091000042000F019FC0820029000208DF80C0043
:1009200008208DF80D0001208DF80E0002A801F0BE
:1009300027F80421084600F007FC10200290002050
:100940008DF80C0010208DF80D0000208DF80E00A1
:1009500002A801F015F81FBD08B50120ADF8000090
:1009600002208DF8020010208DF8030069461C4813
:1009700000F0D4FA0220ADF800008DF8020010203B
:100980008DF803006946164800F0C8FA03211448A0
:1009900000F073FB08BD704700BFFEE700BFFEE735
:1009A00000BFFEE7704770477047704710B506F00C
:1009B00075F810BD10B504F0FFFE10BD0004004036
:1009C0005800002050000020480000206400002053
:1009D0000018014000080140710000207000002054
:1009E000001001400CB50020019000906C48006898
:1009F00040F480306A49086000BF6948006800F42C
:100A0000003000900198401C0190009818B901989E
:100A1000B0F5A06FF1D16248006800F4003010B169
:100A20000120009001E0002000900098012843D1AF
:100A30005C48006840F010005A49086008460068A9
:100A400020F0030008600846006840F002000860DB
:100A50005348406852494860084640684860084624
:100A6000406840F4806048600846406820F47C108C
:100A700048600846406840F4E8104860084600684E
:100A800040F08070086000BF4548006800F00070CA
:100A90000028F9D04248406820F0030040494860EF
:100AA0000846406840F00200486000BF3C4840688B
:100AB00000F00C000828F9D10CBD10B5FFF792FF2B
:100AC00010BD10B53648006840F001003449086098
:100AD0000846406834490840314948600846006883
:100AE000324908402E4908600846006820F48020FA
:100AF00008600846406820F4FE0048604FF41F007C
:100B00008860FFF7DAFF4FF000602949086010BDE8
:100B100010B5002100200022214B5B6803F00C017E
:100B200021B1042906D0082928D107E0214B224C05
:100B3000236027E01F4B204C236023E0184B5B68A9
:100B400003F47010164B5B6803F48032022303EB4E
:100B5000904022B9194B4343174C23600DE0104BD2
:100B60005B6803F4003323B1144B4343124C2360FE
:100B700003E0104B4343104C236003E00D4B0E4C3D
:100B8000236000BF00BF064B5B68C3F303130C4C2C
:100B9000E15C094B1B68CB40074C236010BD000093
:100BA00000100240002002400000FFF8FFFFF6FEA8
:100BB00008ED00E000127A000800002000093D0066
:100BC0000C00002010B504466FF0040000F027F977
:100BD000E11704EB5171C1F3C7012B4A11701046A4
:100BE000007800EB4001C1EBC0104FF6FF7101EA45
:100BF000C0002649088010BD0146234A12784A43A6
:100C00004FF0E0235A6100229A611A46126942F0BD
:100C100001021A6100BF4FF0E022106900F00102EA
:100C20001AB100F48032002AF5D04FF0E0221269A8
:100C300022F001024FF0E0231A6100229A6170470E
:100C40000146124A12884A434FF0E0235A610022BB
:100C50009A611A46126942F001021A6100BF4FF010
:100C6000E022106900F001021AB100F48032002A7B
:100C7000F5D04FF0E022126922F001024FF0E0239C
:100C80001A6100229A6170471C0000201E0000209B
:100C900010B586B004460121042000F0FBFB0121C1
:100CA000880300F0F7FB0121084600F0F3FB4FF446
:100CB0000070ADF8140003208DF8160018208DF890
:100CC000170005A9234800F029F94FF48060ADF81A
:100CD000140004208DF8170005A91E4800F01EF925
:100CE00001940020ADF80800ADF80A00ADF80C0042
:100CF000ADF810000C20ADF80E0001A9164800F068
:100D000070FC0121144800F0F8FC4021124800F06A
:100D1000DCFD012240F225510F4800F0FAFC2520AD
:100D20008DF8000003208DF801008DF802000120ED
:100D30008DF80300684600F028F806B010BD10B525
:100D40004021054800F0C1FD40F22551024800F065
:100D5000C5FD10BD0008014000380140064880472D
:100D600006480047FEE7FEE7FEE7FEE7FEE7FEE790
:100D7000FEE7FEE7FEE7FEE7C30A000831010008D0
:100D800031490143314A1160704770B50021002399
:100D90000F22C47804B32D4C246804F4E064C4F535
:100DA000E064210AC1F10403CA40447804FA03F163
:100DB0008478144021430901254C0678A155047814
:100DC00004F01F050124AC4005786D11AD0005F15C
:100DD000E025C5F8004109E0047804F01F0501246E
:100DE000AC401C4D0678761145F8264070BD1A4A75
:100DF0000A400243154B1B1F1A60704739B1134A52
:100E0000121D12680243114B1B1D1A6006E00F4AA7
:100E1000121D126882430D4B1B1D1A607047042877
:100E200008D14FF0E021096941F004014FF0E022C0
:100E3000116107E04FF0E021096921F004014FF052
:100E4000E0221161704700000000FA050CED00E09F
:100E500000E400E080E100E080FFFF1F10B50446E1
:100E6000CC48844208D10121042000F02DFB002150
:100E7000042000F029FB46E0C748844208D1012144
:100E8000082000F021FB0021082000F01DFB3AE0C3
:100E9000C248844208D10121102000F015FB002136
:100EA000102000F011FB2EE0BD48844208D1012142
:100EB000202000F009FB0021202000F005FB22E0AB
:100EC000B848844208D10121402000F0FDFA0021F9
:100ED000402000F0F9FA16E0B348844208D101211D
:100EE000802000F0F1FA0021802000F0EDFA0AE005
:100EF000AE48844207D10121801500F0E5FA0021B7
:100F0000A01500F0E1FA10BD10B50121084600F06F
:100F1000DBFA0021012000F0D7FA10BD2DE9F041E5
:100F2000024600250026002000230024002791F817
:100F300003C00CF00F0591F803C00CF0100CBCF1CD
:100F4000000F03D091F802C04CEA050591F800C0EB
:100F5000BCF1000F31D0146800202BE04FF0010CE1
:100F60000CFA00F3B1F800C00CEA03069E4220D14F
:100F700083004FF00F0C0CFA03F7BC4305FA03FC97
:100F80004CEA040491F803C0BCF1280F06D14FF0DD
:100F9000010C0CFA00FCC2F814C00AE091F803C07E
:100FA000BCF1480F05D14FF0010C0CFA00FCC2F85F
:100FB00010C0401C0828D1D31460B1F800C0BCF1A7
:100FC000FF0F34DD546800202EE000F1080C4FF0D4
:100FD000010808FA0CF3B1F800C00CEA03069E42BF
:100FE00021D183004FF00F0C0CFA03F7BC4305FA34
:100FF00003FC4CEA040491F803C0BCF1280F05D1AE
:1010000000F1080C08FA0CF8C2F8148091F803C03B
:10101000BCF1480F07D100F1080C4FF0010808FAA5
:101020000CF8C2F81080401C0828CED35460BDE8EC
:10103000F0814FF6FF710180022181700421C1709F
:1010400070470246002093680B400BB1012000E07E
:10105000002070470146886880B270470246002031
:10106000D3680B400BB1012000E00020704701461F
:10107000C86880B2704701617047416170470AB12A
:10108000016100E041617047C16070474FF48032F8
:101090000A43826181618261826982697047024686
:1010A0000020434B18684FF68073184040EA021046
:1010B00008433F4B186070473E49C8617047F0B520
:1010C0000A46002300240021002500F00046B6F166
:1010D000004F02D1364EF16901E0354E7168C0F320
:1010E000034583B200F44016B6F5401F08D121F045
:1010F00070612F4E766826F070662D4F7E6012E08C
:1011000000F48016B6F5801F06D1032606FA05F412
:10111000A14341F0706106E0460D360103FA06F680
:10112000B14341F0706122B1460D360103FA06F673
:10113000314300F00046B6F1004F02D11C4EF16180
:1011400001E01B4E7160F0BD30B500228B071C0F13
:101150000F2303FA04F2164B08338C1053F8243093
:101160009343134C08348D1044F8253023468C10DB
:1011700053F824308C07240F00FA04F423430C4C5A
:1011800008348D1044F8253030BD0A49DC31086040
:101190007047000000080140000C014000100140B1
:1011A0000014014000180140001C014000200140D3
:1011B0000000014000002042DF48006840F00100CC
:1011C000DD49086008464068DC490840DA49486063
:1011D00008460068DA490840D749086008460068B0
:1011E00020F4802008600846406820F4FE00486033
:1011F0004FF41F0088607047CF49096821F480319F
:10120000CD4A11601146096821F480211160B0F5C2
:10121000803F03D0B0F5802F0ED106E0C6490968A3
:1012200041F48031C44A116007E0C349096841F4C0
:10123000A021C14A116000E000BF00BF704710B597
:1012400001460022002300204A11012A02D1BA4C93
:10125000236806E0022A02D1B74C236A01E0B64CAB
:10126000636A01F01F02012494401C400CB101206C
:1012700000E0002010BD38B50020009000240025BB
:1012800000BF3120FFF7DBFF05460098401C0090AF
:101290000098B0F5A06F01D0002DF2D03120FFF7FB
:1012A000CEFF08B1012400E00024204638BD0146ED
:1012B0000020A14A106820F0F80040EAC100106048
:1012C0007047A04908607047024600209A4B586852
:1012D00020F47C1042EA01031843974B5860704792
:1012E00098490866704701460020934A506820F0EC
:1012F00003000843506070478F48406800F00C00BE
:101300007047014600208C4A506820F0F0000843E6
:101310005060704701460020874A506820F4E06022
:1013200008435060704701460020834A506820F40B
:10133000605040EAC1005060704729B17E4A527A3D
:1013400002437D4B5A7204E07B4A527A82437A4BC5
:101350005A7270477B49D8310860704701460020B7
:10136000754A506820F4404008435060704700219F
:10137000714A20321170704A82F82010012802D080
:1013800004280AD104E001216B4A2032117005E0E3
:101390000521694A2032117000E000BF00BF70478C
:1013A0006949086070476449096A0143624A1162E9
:1013B0007047654944390860704730B50021002204
:1013C000002400235C4D6D6805F00C0121B1042957
:1013D00005D0082923D105E05C4D056022E05B4D76
:1013E00005601FE0544D6D6805F47012524D6D6834
:1013F00005F48034022505EB92421CB9544D554347
:1014000005600BE04C4D6D6805F400351DB1504D85
:101410005543056002E04D4D5543056002E04B4DDC
:10142000056000BF00BF444D6D6805F0F00109097B
:10143000484D6B5C0568DD4045603F4D6D6805F4C7
:10144000E061090A434D6B5C4568DD4085603A4DBB
:101450006D6805F46051C90A3E4D6B5C4568DD401E
:10146000C560354D6D6805F44041890B3A4D6B5CA4
:10147000C568B5FBF3F5056130BD29B12E4A526947
:1014800002432D4B5A6104E02B4A526982432A4B96
:101490005A61704729B1284A92690243264B9A61E2
:1014A00004E0254A92698243234B9A61704729B12F
:1014B000214AD2690243204BDA6104E01E4AD26914
:1014C00082431D4BDA61704729B11B4AD26802433F
:1014D000194BDA6004E0184AD2688243164BDA608E
:1014E000704729B1144A12690243134B1A6104E090
:1014F000114A12698243104B1A61704712494039F0
:10150000086070470F49C86470470B49C87170473D
:101510000948406A40F080700749486270470146B8
:101520000020054A92680A400AB1012000E000202C
:101530007047014988727047001002400000FFF8B0
:10154000FFFFF6FE000042428004424200127A0091
:1015500000093D00200000203000002010B50446A6
:10156000FB48844209D101218803FFF7ADFF002128
:101570004FF48040FFF7A8FF32E0F648844209D1DB
:1015800001214804FFF7ADFF00214FF40030FFF7C1
:10159000A8FF25E0F048844209D101218804FFF723
:1015A000A0FF00214FF48020FFF79BFF18E0EB48DD
:1015B000844209D10121C804FFF793FF00214FF4B1
:1015C0000020FFF78EFF0BE0E548844208D101219F
:1015D0000805FFF786FF00214FF48010FFF781FF19
:1015E00010BD2DE9F04786B005460E460024A24600
:1015F00000BFA1460027B08900B100BF2F462C8A4A
:101600004CF6FF700440F08804432C82AC894EF6FF
:10161000F3100440B08831890843718908430443BA
:10162000AC81AC8A4FF6FF400440B0890443AC82E1
:1016300001A8FFF7C2FEC648874202D1DDF810A01C
:1016400001E0DDF80CA0A88900F4004040B10AEBED
:10165000CA0000EB0A1031684900B0FBF1F807E05E
:101660000AEBCA0000EB0A1031688900B0FBF1F800
:101670006420B8FBF0F004012009642101FB10890B
:10168000A88900F4004040B1322000EBC900B0FB53
:10169000F1F000F00700044308E0322000EB0910ED
:1016A0006421B0FBF1F000F00F0004432C8106B080
:1016B000BDE8F0874FF41651016000218180C180A0
:1016C00001810C21418100218181704710B50246C2
:1016D0000020108A4FF2FF0318400B884C882343E8
:1016E0008C882343CC8823431843108210BD0021EB
:1016F000018041808180C180704721B1828942F49C
:101700000052828104E082894DF6FF731A40828183
:101710007047F0B50346002400260025002040F65F
:101720006A17B94200D100BF1846C1F3421401F054
:101730001F06012707FA06F5012C01D10C3004E041
:10174000022C01D1103000E014301AB107682F4389
:10175000076002E00768AF430760F0BD1AB1838AF3
:101760000B43838202E0838A8B4383827047028A21
:101770004FF6F0731A400282028A0A4302827047CF
:1017800082894FF2FF731A40828182890A438281E3
:10179000704721B1828942F00202828104E082898D
:1017A0004FF6FD731A4082817047028A4FF6DF734D
:1017B0001A400282028A0A430282704721B1028AD9
:1017C00042F48042028204E0028A4BF6FF731A4020
:1017D00002827047C1F30802828070470146888800
:1017E000C0F308007047818941F001018181704791
:1017F000028BD2B20283028B42EA0122028370473B
:10180000028B02F47F420283028B0A4302837047F9
:1018100021B1828A42F02002828204E0828A4FF65D
:10182000DF731A408282704721B1828A42F010022F
:10183000828204E0828A4FF6EF731A4082827047F8
:1018400021B1828A42F00802828204E0828A4FF645
:10185000F7731A408282704721B1828942F40042B4
:10186000828103E08289C2F30E028281704721B136
:10187000828A42F40062828204E0828A4FF2FF731D
:101880001A4082827047828A4FF6FB731A40828226
:10189000828A0A438282704721B1828A42F0020220
:1018A000828204E0828A4FF6FD731A40828270477A
:1018B00002460020B1F5007F00D100BF13880B4025
:1018C0000BB1012000E00020704701F40072B2F576
:1018D000007F00D100BFCA430280704770B5024646
:1018E000002400230025002040F66A16B14200D1F2
:1018F00000BFC1F3421501F01F03012606FA03F3EE
:10190000012D02D19689334006E0022D02D1168ABC
:10191000334001E0968A33400C12012606FA04F4A3
:101920001688344013B10CB1012000E0002070BDD6
:1019300010B50022002340F66A14A14200D100BF76
:101940000A1201249440A3B2DC43048010BD0000BD
:10195000003801400044004000480040004C004076
:1019600000500040002044490860091D0860091D1E
:101970000860091D086041483F49143108607047FC
:1019800000213D498279002A3AD00A46126803684C
:101990009A430B461A600A1D126803689A430B1D8E
:1019A0001A60027911440A6803681A430A60324ACD
:1019B0000832126803689A432F4B08331A601A1DC5
:1019C000126803689A432C4B0C331A604279102A30
:1019D0000ED11A1F126803681A43274B08331A6086
:1019E0001A1D126803681A43234B0C331A600DE06A
:1019F0002149427911440A6803681A430A6005E0E4
:101A0000027911440A6803689A430A60704700210A
:101A1000016001710C2141710021817170471649EB
:101A2000103109680143144A1032116070470146B1
:101A30000020114A143212680A400AB1012000E065
:101A4000002070470C49143108607047014600209F
:101A50000022094B1B6803EA0102074B14331B6881
:101A60000B4013B10AB1012000E000207047024989
:101A7000143108607047000000040140FFFF0F00B0
:101A800010B50446FE48844208D10121C014FFF776
:101A90001BFD0021E014FFF717FDC4E0B4F1804FF7
:101AA00008D101210846FFF71CFD00210120FFF7A6
:101AB00018FDB8E0F348844208D101210220FFF765
:101AC00010FD00210220FFF70CFDACE0EE4884423F
:101AD00008D101210420FFF704FD00210420FFF7B5
:101AE00000FDA0E0E948844208D101210820FFF769
:101AF000F8FC00210820FFF7F4FC94E0E44884425D
:101B000008D101211020FFF7ECFC00211020FFF785
:101B1000E8FC88E0DF48844208D101212020FFF75B
:101B2000E0FC00212020FFF7DCFC7CE0DA48844266
:101B300008D101214014FFF7C7FC00216014FFF712
:101B4000C3FC70E0D548844209D10121C804FFF7E5
:101B5000BBFC00214FF40020FFF7B6FC63E0D04847
:101B6000844209D101210805FFF7AEFC00214FF4A2
:101B70008010FFF7A9FC56E0CA48844209D1012130
:101B80004805FFF7A1FC00214FF40010FFF79CFC73
:101B900049E0C548844208D101214020FFF7A1FC5B
:101BA00000214020FFF79DFC3DE0C048844208D161
:101BB00001218020FFF795FC00218020FFF791FC98
:101BC00031E0BB48844208D101218015FFF789FC30
:101BD0000021A015FFF785FC25E0B648844209D115
:101BE00001210804FFF770FC00214FF48030FFF75B
:101BF0006BFC18E0B048844209D101214804FFF78A
:101C000063FC00214FF40030FFF75EFC0BE0AB48B3
:101C1000844208D101218804FFF756FC00214FF4CB
:101C20008020FFF751FC10BD00220288944B98429F
:101C30000ED0994B98420BD0B0F1804F08D0914B09
:101C4000984205D0904B984202D0904B984204D1D4
:101C50004FF68F731A404B881A438D4B984207D02A
:101C60008C4B984204D04FF6FF431A40CB881A435E
:101C700002808B8883850B880385814B98420BD02B
:101C8000854B984208D08B4B984205D08A4B98429E
:101C900002D08A4B984201D10B7A038601238382BA
:101CA000704770B5002400220023058C4FF6FE76A5
:101CB00035400584028C8388048B4FF68F752C4049
:101CC000B51E2C400D882C43751E2A400D892A43D1
:101CD0004D882A436A4DA8420BD06F4DA84208D0C8
:101CE000744DA84205D0744DA84202D0734DA8424D
:101CF00013D14FF6F7752A404D892A434FF6FB75ED
:101D00002A408D882A434FF6FF652B404FF6FF553A
:101D10002B408D892B43CD892B4383800483CD8831
:101D20008586028470BD70B5002400220023058CD6
:101D30004FF6EF7635400584028C8388048B48F695
:101D4000FF752C404FF6FF452C400D884FF6FF766F
:101D500006EA05252C434FF6DF752A400D8906EA71
:101D600005152A434D8806EA05152A43444DA84225
:101D700002D0494DA8421DD14FF67F752A404D89AA
:101D80004FF6FF7606EA05152A434FF6BF752A403F
:101D90008D8806EA05152A434FF6FF352B404FF292
:101DA000FF752B408D8906EA85052B43CD8906EA10
:101DB00085052B4383800483CD880587028470BD0D
:101DC00070B5002400220023058C4FF6FF663540D5
:101DD0000584028C8388848B4FF68F752C404FF6D8
:101DE000FC752C400D882C434FF6FF552A400D8979
:101DF0004FF6FF7606EA05252A434D8806EA0525B3
:101E00002A431F4DA84202D0234DA8421DD14FF2B4
:101E1000FF752A404D894FF6FF7606EA05252A43CD
:101E20004FF6FF352A408D8806EA05252A434EF6EF
:101E3000FF752B404DF6FF752B408D8906EA051581
:101E40002B43CD8906EA05152B4383808483CD88F7
:101E50008587028470BD70B5002200230024058CA4
:101E60004EF6FF7635400584038C8488828B48F6D5
:101E7000FF752A404FF6FF452A400D8820E00000FC
:101E8000002C01400004004000080040000C00400D
:101E9000001000400014004000340140004C01409C
:101EA000005001400054014000180040001C004058
:101EB0000020004000400140004401400048014033
:101EC0004FF6FF7606EA05252A434DF6FF752B40AF
:101ED0000D8906EA05352B434D8806EA05352B4367
:101EE000FA4DA84202D0FA4DA84208D14BF6FF7530
:101EF0002C408D894FF6FF7606EA85152C438480A9
:101F00008283CD88A0F84050038470BD828B4FF24D
:101F1000FF331A408283828B4FF6FF7303EA01235B
:101F20001A4382837047F0B50C4615460022002103
:101F30000026078C4EF6FF7C07EA0C070784828B8D
:101F4000018C4FF6FF7707EA043640F6FF473A4028
:101F50004FF6FF7707EA05273A434FF6FF7707EA80
:101F600003373A43D94FB8420ED0D94FB8420BD0BD
:101F7000B0F1804F08D0D74FB84205D0D64FB84205
:101F800002D0D64FB84206D14DF6FF77394046F41D
:101F90008057394305E047F6FF57394044F48057EE
:101FA000394382830184F0BD828B4FF6F3731A406C
:101FB0008283828B0A4382837047F0B50C461546B4
:101FC000002200210026078C4FF6FF6C07EA0C0761
:101FD0000784828B018C4FF6FF7707EA04264FF6C1
:101FE0000C773A404FF6FF7707EA03172F433A433F
:101FF000B64FB8420ED0B64FB8420BD0B0F1804FBA
:1020000008D0B44FB84205D0B34FB84202D0B34F56
:10201000B84206D14FF6FF57394046F4807739432E
:1020200005E04FF2FF57394044F48077394382830B
:102030000184F0BD028B4FF2FF331A400283028B02
:102040004FF6FF7303EA01231A4302837047F0B58A
:102050000C461546002200210026078C4FF6EF7C27
:1020600007EA0C070784028B018C4FF6FF7707EA1B
:10207000041640F6FF473A404FF6FF7707EA03376A
:102080003A434FF6FF7707EA05273A438F4FB842A6
:102090000ED08F4FB8420BD0B0F1804F08D08D4F8B
:1020A000B84205D08C4FB84202D08C4FB84206D10E
:1020B0004FF6DF77394046F01007394305E04FF619
:1020C0005F77394044F01007394302830184F0BD43
:1020D000028B4FF6F3731A400283028B0A4302838A
:1020E0007047F0B50C46154600220021068C4FF6CD
:1020F000FE773E400684028B018C4FF60C76324010
:102100007E1C06EA03162E433243704EB0420ED0B8
:102110006F4EB0420BD0B0F1804F08D06D4EB04240
:1021200005D06D4EB04202D06C4EB04206D14FF693
:10213000FD76314044F00106314305E04FF6F57677
:10214000314044F00106314302830184F0BD70B593
:1021500005460C465D4885420ED05D4885420BD051
:10216000B5F1804F08D05B48854205D05A4885427A
:1021700002D05A48854200D100E000BF208850B903
:102180002389A28861882846FFF7ABFFE1882846AB
:10219000FFF79EFF25E0208804280AD12389A28822
:1021A00061882846FFF753FFE1882846FFF742FF82
:1021B00017E0208808280AD12389A2886188284648
:1021C000FFF7FBFEE1882846FFF7EEFE09E02389D2
:1021D000A28861882846FFF7A6FEE1882846FFF717
:1021E00095FE70BD2DE9F04105460C4600260127FD
:1021F000608808B9022600E00026A088012801D1E5
:10220000022700E001272088A0B92389A2886188DD
:102210002846FFF766FFE1882846FFF759FF238924
:102220003A4631462846FFF712FFE1882846FFF775
:1022300001FF13E02389A28861882846FFF707FF82
:10224000E1882846FFF7F6FE23893A4631462846BC
:10225000FFF747FFE1882846FFF73AFFBDE8F08126
:102260000A884B881A438B881A43CB881A430B89F8
:102270001A434B891A438B891A43A0F844207047AC
:102280004FF6FF71818000210180C1804180017281
:1022900070470021018041808180C180018141819E
:1022A0008181C181704700210180418001218180AD
:1022B0000021C1800181704700210180418081801F
:1022C000C18001814181818170470000002C014063
:1022D000003401400004004000080040000C0040B1
:1022E00021B1028842F00102028004E002884FF628
:1022F000FE731A400280704731B1B0F8442042F4B6
:102300000042A0F8442005E0B0F84420C2F30E02D9
:10231000A0F8442070471AB183890B43838102E0FF
:1023200083898B43838170478182704741EA02032E
:10233000A0F8483070471AB183890B43838102E0CB
:1023400083898B438381704701894FF6F87211406E
:10235000018170470A46002101894FF68F731940A9
:1023600011430181704730B504460D462946204689
:10237000FFF7F0FF208940F00700208130BD2DE9F4
:10238000F04104460D4616461F46602D06D13B46D9
:10239000012231462046FFF75AFE05E03B46012266
:1023A00031462046FFF79DFE29462046FFF7D2FF23
:1023B000208940F007002081BDE8F08130B50C464F
:1023C00000210189C9B24FF6FF7505EA03251543BF
:1023D00025432943018130BD2DE9F04105460E46D4
:1023E00017469846002443463A4631462846FFF7AA
:1023F000E5FF2C894FF6F870044044F007044FF6CF
:102400008F70044044F070042C81BDE8F081F0B579
:1024100004460D4616461F463B4632462946204690
:10242000FFF7CCFF208940F480402081F0BD01857A
:10243000828270470A46002101884FF68F73194047
:10244000114301807047F0B50C4615461E46002129
:10245000002200230189028B038C4FF6F877394064
:1024600021434FF6FC473A4040F201173A434FF6FA
:10247000DD773B404FF6FF7707EA06172F433B43D4
:10248000018102830384F0BD0A460021018B4FF6CF
:102490008F7319401143018370470A460021018B55
:1024A00048F6FF7319404FF6FF7303EA02231943FE
:1024B000018370470A460021818B4FF68F731940C4
:1024C0001143818370470A460021818B48F6FF73D0
:1024D00019404FF6FF7303EA0223194381837047C3
:1024E00021B1028842F08002028004E002884FF6A7
:1024F0007F731A400280704721B1828842F0040243
:10250000828004E082884FF6FB731A408280704715
:1025100021B1828842F00802828004E082884FF66E
:10252000F7731A408280704721B1828842F001021D
:10253000828004E082884FF6FE731A4082807047E2
:102540000A460021018B4FF6F773194011430183AE
:1025500070470A460021018B4FF2FF7319404FF676
:10256000FF7303EA02231943018370470A460021DF
:10257000818B4FF6F77319401143818370470A46E8
:102580000021818B4FF2FF7319404FF6FF7303EA6E
:1025900002231943818370470A460021018B4FF6BD
:1025A000FB7319401143018370470A460021018BD8
:1025B0004FF6FF3319404FF6FF7303EA0223194326
:1025C000018370470A460021818B4FF6FB73194047
:1025D0001143818370470A460021818B4FF6FF33F8
:1025E00019404FF6FF7303EA0223194381837047B2
:1025F0000A460021018B4FF67F7319401143018376
:1026000070470A460021018BC1F30E014FF6FF739C
:1026100003EA02231943018370470A460021818B94
:102620004FF67F7319401143818370470A4600219A
:10263000818BC1F30E014FF6FF7303EA02231943A6
:10264000818370470A460021018C4FF6FD731940C3
:102650001143018470470A460021018C4FF6F7733D
:1026600019401143018470470A460021018C4FF63E
:10267000DF7319404FF6FF7303EA02131943018415
:1026800070470A460021018C4FF67F7319404FF6C0
:10269000FF7303EA02131943018470470A460021BD
:1026A000018C4FF6FF5319404FF6FF7303EA0223E4
:1026B0001943018470470A460021018C4FF2FF73D1
:1026C00019404FF6FF7303EA022319430184704750
:1026D0000A460021018C4DF6FF7319404FF6FF7337
:1026E00003EA023319430184704730B50023012403
:1026F0008C40A3B2048C9C430484048C02FA01F540
:10270000ADB22C43048430BD30B5002304248C408A
:10271000A3B2048C9C430484048C02FA01F5ADB28C
:102720002C43048430BD70B50346002000241846B5
:10273000183001258D40ACB21D8CA5431D8409B114
:10274000082909D100EB6100056825F070050560D6
:102750000568154305600EE00D1FC5F34E052844BE
:10276000056825F4E045056005684FF6FF7606EA42
:1027700002263543056070BD21B1028842F0020295
:10278000028004E002884FF6FD731A400280704711
:1027900021B1028842F00402028004E002884FF670
:1027A000FB731A400280704721B1828842F0800298
:1027B000828004E082884FF67F731A4082807047DF
:1027C00002884FF6F7731A40028002880A4302809B
:1027D000704782884FF68F731A40828082880A433E
:1027E0008280704702894FF6F8731A40028102898D
:1027F0000A430281704702894FF67F731A400281B3
:1028000002890A430281704781847047818570473D
:10281000818670470187704781877047A0F8401014
:10282000704702884FF6FF431A40028002880A432D
:10283000028070470146888E70470146088F7047B6
:102840000146888F70470146B1F840007047014645
:10285000888C70470146088D704702460020138A15
:102860000B400BB1012000E000207047CA430282F8
:10287000704730B50246002000230024158A05EA7F
:102880000103958905EA010413B10CB1012000E0B0
:10289000002030BDCA4302827047000030B943F2C5
:1028A000DB028100A1F1C0410A6005E043F2D202DF
:1028B0008100A1F1C0410A606FF07042411C8900A3
:1028C000A1F1C0410A608100A1F1C041C1F8042119
:1028D000704710280AD118214FF02042116640217C
:1028E00051664FF0FC319166D16610E01821F74A2D
:1028F000116040214FF02042C2F884104FF0FC31AB
:10290000F24A083211604FF02042C2F88C10704732
:102910001820EE492031086000200906C1F8A40003
:102920004FF0FC30E94928310860091D0860091D95
:1029300008607047D0E901121143C268114302696F
:1029400011434269114382691143C2691143026A0A
:102950001143426A1143826A1143C26A1143026BF6
:10296000114302689200A2F1C042116081680829F7
:102970000BD101688900A1F1C041096841F0400212
:1029800001688900A1F1C0410A60416B0968426B8E
:10299000526841EA0211426B926841EA0221426B9D
:1029A000928941EA0241426B128A41EA0251426B2A
:1029B000127D41EA0261426B926911430268521C26
:1029C0009200A2F1C0421160C16AB1F5804F1BD1E3
:1029D000816B0968826B526841EA0211826B9268CE
:1029E00041EA0221826B128A41EA0251826B127D16
:1029F00041EA0261826B9269114302689200A2F17E
:102A0000C042C2F8041107E06FF07042016889000B
:102A1000A1F1C041C1F80421704730B50021002266
:102A20000023446844F0080485682C43C5682C439F
:102A300005692C43456944EA4524856944EA4531E2
:102A4000C4692468C5696D6844EA0524C5692D898F
:102A500044EA0544C5692D7B44EA0562046A24689A
:102A6000056A6D6844EA0524056A2D8944EA05442F
:102A7000056A2D7B44EA05630468102C05D14FF0EC
:102A800020442166A266E36608E0904C21604FF086
:102A90002044C4F888208D4C0C34236030BD01687C
:102AA00041F01001426841EA4221826841EA423124
:102AB000864A20321160C1680968C268526841EADA
:102AC0000221C268128941EA0241C268127B41EACE
:102AD00002617E4A28321160016909680269526800
:102AE00041EA02210269128941EA02410269127B2C
:102AF00041EA0261754A2C321160416909684269F4
:102B0000526841EA02214269128941EA024142695E
:102B1000127B41EA02614FF02042C2F8B0107047C8
:102B2000002101600221416000218160C1600161DA
:102B300041618161C16101624FF48051416249008C
:102B400081620021C16201630F21426B1160426BFF
:102B50005160FF21426B91600F21426BD160426B4B
:102B60001161426B51610021426B91610F21826BB7
:102B70001160826B5160FF21826B91600F21826B2B
:102B8000D160826B1161826B51610021826B916116
:102B9000704710210160002141608160C1600161C6
:102BA00041618161FC21C2691160C2695160C269E1
:102BB0009160C269D160026A1160026A5160026A62
:102BC0009160026AD16070470021016041608160BC
:102BD000FC21C2681160C2685160C2689160C2681D
:102BE000D1600269116002695160026991600269F5
:102BF000D1604269116042695160426991604269E5
:102C0000D160704751B18200A2F1C042126842F017
:102C100001038200A2F1C042136009E08200A2F128
:102C2000C04212682A4B1A408300A3F1C0431A60C5
:102C3000704799B1102808D14FF02042126E42F02F
:102C400004024FF020431A661DE0204A126842F049
:102C500004024FF02043C3F8802014E0102809D16B
:102C60004FF02042126E1A4BDB1E1A404FF02043E9
:102C70001A6608E0154A1268154BDB1E1A404FF021
:102C80002043C3F88020704748B1104920310968BB
:102C900041F004014FF02042C2F8A01009E00B49B6
:102CA000203109680A4AD21E11404FF02042C2F872
:102CB000A0107047B9B110280CD14FF02042126E0D
:102CC00042F040024FF020431A661FE0800000A04F
:102CD000FEFF0F00724A126842F040024FF020439C
:102CE000C3F8802012E0102808D14FF02042126E65
:102CF0006C4B1A404FF020431A6607E0684A12688E
:102D0000684B1A404FF02043C3F8802070470146BB
:102D10000020102903D14FF02042506F02E0604A9A
:102D200014321068704710B5F2B1102807D14FF077
:102D300020435B6E0B434FF02044636632E0B0F5F6
:102D4000807F08D1564B1B1D1B680B434FF020445E
:102D5000C4F8843026E0524B24331B680B434FF0F9
:102D60002044C4F8A4301DE0102807D14FF02043C0
:102D70005B6E8B434FF02044636613E0B0F5807FB9
:102D800008D1474B1B1D1B688B434FF02044C4F8F0
:102D9000843007E0424B24331B688B434FF02044C0
:102DA000C4F8A43010BD10B5024600200023102A3C
:102DB00003D14FF02044636E09E0B2F5807F03D168
:102DC000374C241D236802E0354C2434236803EA81
:102DD00001040CB1012000E0002010BD102807D133
:102DE0004FF02042526E8A434FF020435A6613E060
:102DF000B0F5807F08D12A4A121D12688A434FF02D
:102E00002043C3F8842007E0254A243212688A430D
:102E10004FF02043C3F8A420704770B5024600204D
:102E2000002300240025102A03D14FF02046736EA2
:102E300009E0B2F5807F03D1194E361D336802E0F8
:102E4000174E2436336803EA010403EAD10514B1AE
:102E50000DB1012000E0002070BD102808D14FF016
:102E60002042526E22EAD1024FF020435A6615E00A
:102E7000B0F5807F09D10A4A121D126822EAD102F8
:102E80004FF02043C3F8842008E0054A243212683A
:102E900022EAD1024FF02043C3F8A420704700007B
:102EA000800000A0BFFF0F0010B50446BE4884425A
:102EB00008D101218014FEF707FB0021A014FEF7C2
:102EC00003FB16E0B948844208D101210014FEF743
:102ED00008FB00212014FEF704FB0AE0B4488442FA
:102EE00007D10121C013FEF7FCFA0021E013FEF721
:102EF000F8FA10BD10B50022028802F441520B8886
:102F00004C8823438C882343CC8823430C89234358
:102F10004C8923438C892343CC8923431A43028061
:102F2000838B4FF2FF74234083830B8A038210BD8F
:102F30002DE9F04F85B005460C464FF000090227F9
:102F40004FF000084FF0010B0026B246A88B4FF25D
:102F500040010840A88302202884B5F81C90A0688E
:102F6000022801D100BF38E0A08810B94FF0010B52
:102F700001E04FF0020B8D48854200D100E000BF18
:102F80006846FEF71AFADDF800A0E088B0F5007F89
:102F90000AD14FEA1A2000EB80004000A168B0FB84
:102FA000F1F0401D86B20BE04FEA4B10BAFBF0F097
:102FB00000EB80004000A168B0FBF1F0401D86B23C
:102FC0000A20B6FBF0F606F00108A6EB0800C0F3F5
:102FD0004F074FF6FF7000EA0828022F01DBFF2F92
:102FE00002DD02274FF00008E08840EA080038437D
:102FF0002884A088A1890843618808432188084360
:1030000040F4006040EA0909A5F81C9005B0BDE84D
:10301000F08F0021018041808180C1800181418148
:103020008181C18107210182704700210180418097
:103030008180C1800221816000218181704721B19E
:10304000028842F04002028004E002884FF6BF731B
:103050001A400280704721B1828B42F480628283E1
:1030600004E0828B4FF6FF331A408283704730B5FD
:10307000002400230C110125A540ABB21AB18588AC
:103080001D43858002E085889D43858030BD1AB14F
:1030900083880B43838002E083888B43838070475F
:1030A000818170470146888970474FF6FF629142DF
:1030B00004D0028842F48072028004E002884FF655
:1030C000FF631A400280704721B1828842F00402F7
:1030D000828004E082884FF6FB731A40828070473A
:1030E00002884FF2FF731A40028002880A4302806E
:1030F0007047018841F480510180704721B10288F6
:1031000042F40052028004E002884DF6FF731A4038
:103110000280704702460020012901D0108B00E098
:10312000908A70470146088A7047B1F5804F04D1F4
:10313000028842F48042028004E002884BF6FF736A
:103140001A40028070470246002013890B400BB1E1
:10315000012000E000207047CA4302817047F0B5AB
:103160000246002000240023002501F00F0701265D
:10317000BE40B4B20B1101269E40B3B2968806EA57
:1031800003051689264016B10DB1012000E000208C
:10319000F0BD10B5002201F00F040123A3409AB244
:1031A000D343038110BD00000030014000380040CF
:1031B000003C004001460020FE4A106800F0380044
:1031C000084310607047FB49096821F00801F94A7B
:1031D000116011460968014311607047F54909689B
:1031E00021F01001F34A1160114609680143116092
:1031F0007047F148EF494860F04848607047EE4832
:10320000EC494860ED4848607047EA48006940F082
:103210008000E84908617047E648006940F0800096
:10322000E449086170470420E249C96801F00101DE
:1032300009B101200EE0DF49C96801F0040109B1BC
:10324000022007E0DB49C96801F0100109B1032041
:1032500000E00420704700B502460423FFF7E3FFB7
:10326000034603E0FFF7DFFF0346521E012B01D1A7
:10327000002AF7D102B90523184600BD30B504462F
:1032800004254FF43020FFF7E6FF0546042D17D143
:10329000C848006940F00200C64908610846446118
:1032A000006940F0400008614FF43020FFF7D3FF81
:1032B0000546C048006941F6FD710840BD490861F6
:1032C000284630BD10B504244FF43020FFF7C3FF6B
:1032D0000446042C16D1B748006940F00400B549F3
:1032E00008610846006940F0400008614FF4302052
:1032F000FFF7B1FF0446AF48006941F6FB71084093
:10330000AC490861204610BD00B502460423FFF712
:103310008AFF034603E0FFF786FF0346521E012B98
:1033200001D1002AF7D102B90523184600BD10B516
:1033300004244FF43020FFF7E7FF0446042C16D195
:103340009C48006940F004009A49086108460069F9
:1033500040F0400008614FF43020FFF7D5FF0446ED
:103360009448006941F6FB71084092490861204683
:1033700010BD00208F49C96901F0020109B1012087
:1033800000E00020704730B5A5250424FFF7F1FFC9
:1033900000B100254FF43020FFF75DFF0446042CF8
:1033A0003AD1854883498860844888600846006926
:1033B00040F0200008610846006940F040000861C4
:1033C0004FF43020FFF747FF0446042C1BD1794807
:1033D000006941F6DF7108407649086108460069D6
:1033E00040F01000086176480580E002FFF733FFE7
:1033F0000446052C10D06F48006941F6EF71084073
:103400006C49086108E0052C06D06A48006941F65D
:10341000EF71084067490861204630BD78B506461F
:103420000C46042500200090E802FFF714FF054633
:10343000042D24D15F48006940F001005D49086116
:103440003480E802FFF707FF0546042D10D1B01CB9
:103450000090200C00990880E802FFF7FCFE05466A
:103460005448006941F6FE7108405249086106E07F
:103470005048006941F6FE7108404E4908612846EF
:1034800078BD70B504460D460426F002FFF7E3FE52
:103490000646042E11D14748006940F00100454915
:1034A00008612580F002FFF7D6FE06464148006914
:1034B00041F6FE7108403F490861304670BD70B565
:1034C00005460E460424E002FFF7C5FE0446042C20
:1034D00017D13948374988603848886008460069FC
:1034E00040F0100008612E80E002FFF7B4FE0446B1
:1034F000052C06D02F48006941F6EF7108402D4990
:103500000861204670BD2DE9F04304464FF6FF7672
:103510003746B046B1460425E443E6B2C4F3072774
:10352000C4F307484FEA1469E802FFF794FE054622
:10353000042D49D120481F498860204888600846EA
:10354000006940F010000861FF2E06D01C480830CA
:103550000680E802FFF77FFE0546042D08D1FF2F05
:1035600006D017480A300780E802FFF774FE0546C8
:10357000042D0AD1B8F1FF0F07D011480C30A0F884
:103580000080E802FFF767FE0546042D0AD1B9F175
:10359000FF0F07D00A480E30A0F80090E802FFF7AE
:1035A0005AFE0546052D0FD00248006941F6EF711D
:1035B000084007E00020024023016745AB89EFCDBA
:1035C00000F8FF1F664908612846BDE8F08330B562
:1035D000054604244FF43020FFF73DFE0446042C3A
:1035E00041D160485E4988605F488860084600694C
:1035F00040F0200008610846006940F04000086182
:103600004FF43020FFF727FE0446042C22D1544803
:10361000006941F6DF7108405149086108460069B8
:1036200040F0100008611DB100205049088002E000
:10363000A5204E4908804FF43020FFF70CFE0446C9
:10364000052C10D04648006941F6EF710840444906
:10365000086108E0052C06D04148006941F6DF7199
:1036600008403F490861204630BDF0B505460E468A
:10367000174604243B483A4988603B488860E0028A
:10368000FFF7E9FD0446042C19D13548006940F0E4
:1036900010003349086147F0F800304328433349AC
:1036A000891C0880E002FFF7D6FD0446052C06D0F1
:1036B0002B48006941F6EF7108402949086120460E
:1036C000F0BD2748C069800870472548006A7047E8
:1036D00000202349096801F0200109B1012000E020
:1036E0000020704729B11E4A126902431C4B1A611F
:1036F00004E01B4A12698243194B1A617047014664
:103700000020012908D1164AD26902F001020AB14B
:10371000012008E0002006E0114AD2680A400AB100
:10372000012000E0002070470D49C8607047042068
:103730000B49C96801F0010109B101200EE00849F7
:10374000C96801F0040109B1022007E00449C96811
:1037500001F0100109B1032000E0042070470000CF
:103760000020024023016745AB89EFCD00F8FF1F21
:1037700070B504460D4616462B462246294620467D
:1037800000F0E5FC304600F096FC70BD2DE9FF4FDF
:1037900085B081468A460020039083460798A0EBB7
:1037A00009050898A0EB0A06CDF80490CDF808A00A
:1037B000002D01DD012705E00DB9002702E04FF0E3
:1037C000FF376D42002E02DD4FF0010806E016B90A
:1037D0004FF0000802E04FF0FF387642B54201DDBD
:1037E0002C4600E03446002004901EE0129ADDE9E9
:1037F0000101FFF7BDFF039828440390B3440398E9
:10380000A04206DD0398001B03900198384480B263
:103810000190A34505DDABEB040B0298404480B258
:1038200002900498401C80B20490611C0498884265
:10383000DCDD09B0BDE8F08F2DE9F84305460E4602
:1038400017469846089C33463A4631462846009427
:10385000FFF79CFF43462A46314628460094FFF76F
:1038600095FF43463A46414628460094FFF78EFFAF
:1038700043463A46314638460094FFF787FFBDE895
:10388000F88370B504460D46164632462946204652
:10389000FFF76EFF70BD2DE9F05F07460D46164637
:1038A0009846AB4600243BE0102C05DABA4901EB00
:1038B000461010F8049009E0012000EB4600B649DC
:1038C00001EB0011A4F1100011F800904FF0000A74
:1038D00020E009F0800028B1424629463846FFF72B
:1038E000D0FF05E048F2304229463846FFF7C9FFCD
:1038F0004FEA49604FEA1069681C85B2A5EB0B00DE
:10390000102803D15D46781C87B206E00AF1010059
:1039100000F0FF0ABAF1080FDBDB00BF601CC4B285
:10392000202CC1DBBDE8F09F2DE9F05F07460D4676
:1039300016469846AB46002450E0182C09DA06EBF0
:10394000460000EB4000954901EBC00010F80490E0
:103950001AE0302C0CDA06EB4600401C00EB40006D
:103960008E4901EBC001A4F1180011F800900BE0A2
:1039700006EB4600801C00EB4000884901EBC001CB
:10398000A4F1300011F800904FF0000A20E009F097
:10399000800028B1424629463846FFF772FF05E00D
:1039A00048F2304229463846FFF76BFF4FEA49603C
:1039B0004FEA1069681C85B2A5EB0B00182803D1EB
:1039C0005D46781C87B206E00AF1010000F0FF0AAC
:1039D000BAF1080FDBDB00BF601CC4B2482CACDBC3
:1039E000BDE8F09F70B5322005460646002415E07C
:1039F0004FF47843224632213046FFF74CFF4FF414
:103A00007843224646212846FFF78EFF06F1100034
:103A1000C6B205F11800C5B2601CC4B2072CE7DBC2
:103A200070BD2DE9F04704460D4616461F46DDF8E9
:103A30002080B44201DCBD4201DDBDE8F0873B4699
:103A400032462946204600F082FB301B401C84B2DF
:103A5000781B401C85B20BE0A94602E0404600F00E
:103A60002AFB5FEA0900A9F101011FFA81F9F5D1EA
:103A70002000A4F101018CB2EED100BFDDE72DE9F9
:103A8000F04104460D46174605F1010C1FFA8CF370
:103A900004F1010C1FFA8CF2A5F1010C1FFA8CF154
:103AA000A4F1010C1FFA8CF000F051FB002604E099
:103AB000384600F000FB701CC6B2092EF8DB211D51
:103AC0008AB2211F88B22B46294600F040FB00260F
:103AD00004E0384600F0EFFA701CC6B2092EF8DB9D
:103AE000281D83B2281F81B22246204600F02FFBFA
:103AF000002604E0384600F0DEFA701CC6B2092E3B
:103B0000F8DBBDE8F0812DE9F05F04460E4615466E
:103B100098463BE02878203800F0FF0A06F10F00B5
:103B200083B2E01D82B23146204600F010FB002730
:103B30001FE01B4800EB0A1010F807B04FF0000917
:103B400012E00BF08000802803D1404600F0B3FA69
:103B500002E00A9800F0AFFA4FF6FF7000EA4B0B54
:103B600009F1010000F0FF09B9F1080FE9DB781C49
:103B7000C7B2102FDDDB6D1C04F1080084B2B4F570
:103B8000C47F03DD002406F1100086B228780028E7
:103B9000C0D1BDE8F09F0000947E0008748000084A
:103BA0009478000800B585B001210420FDF772FC6F
:103BB00001210846FDF77BFC0120ADF8040003203D
:103BC0008DF8060004208DF8070001A9E248FDF7F2
:103BD000A5F900231A4619464FF08040FEF717FC5E
:103BE0000020ADF80800ADF80A004FF6FF70ADF800
:103BF0000C000020ADF80E0002A94FF08040FEF747
:103C000013F8012211469007FEF785FB00214FF0C3
:103C10008040FEF765FB1C208DF8000000208DF829
:103C200001008DF8020001208DF803006846FDF7C1
:103C3000ACF805B000BD00B585B001212020FDF72E
:103C400029FC01210220FDF732FC00231A46194607
:103C5000C248FEF7DCFB0420ADF8040003208DF819
:103C6000060004208DF8070001A9BD48FDF756F9AC
:103C70000020ADF80800ADF80A004FF6FF70ADF86F
:103C80000C000020ADF80E0002A9B448FDF7CCFFEF
:103C900001221146B148FEF73EFB0021AF48FEF776
:103CA0001FFB1D208DF8000000208DF801008DF80D
:103CB000020001208DF803006846FDF766F805B0A4
:103CC00000BD10B50121A548FEF7D3FD40B101218B
:103CD000A248FEF7DFFDA3480068401CA149086028
:103CE00010BD0EB541F61F40ADF800000020ADF844
:103CF000020042F21070ADF804000020ADF806009A
:103D000069469948FDF790FF012211469648FEF753
:103D100002FB00219448FEF7E3FA0EBD00B589B01E
:103D200001210420FDF7B6FB01210820FDF7BFFBB0
:103D30000120ADF8040003208DF8060028208DF83E
:103D4000070001A98448FDF7E9F80420ADF8040054
:103D500003208DF8060048208DF8070001A97E4851
:103D6000FDF7DCF84FF6FF70ADF81C004720ADF80A
:103D700018000020ADF81E00ADF81A0006A97B4817
:103D8000FDF752FF0020ADF80C000220ADF8140042
:103D90000020ADF80E00ADF812000120ADF81000C3
:103DA00003A97248FEF7D3F90820ADF80C000220F1
:103DB000ADF81400ADF80E000020ADF8120001209F
:103DC000ADF8100003A96948FEF7C1F900220B21E4
:103DD0006648FEF7A0FA32208DF8080000208DF822
:103DE000090001208DF80A008DF80B0002A8FCF7ED
:103DF000CCFF00215D48FEF773FA09B000BD10B595
:103E0000FCF780FC5A4A03C202215848FEF731FDF4
:103E100048B1FCF7C8FC40F0080056490870084655
:103E20000078FCF78AFC08215048FEF722FD60B1BB
:103E3000FCF7B9FC4F4908700846007800F0F7001D
:103E4000087008460078FCF778FC4A4800784A4930
:103E500008700B214548FEF71DFD10BD00B587B069
:103E600000231A4619464548FEF7D1FA0020ADF85E
:103E700004004FF6FF70ADF808000020ADF80A000E
:103E8000ADF8060001A93D48FDF7CEFE0020ADF8D3
:103E90001000ADF81800ADF81200ADF816000120C2
:103EA000ADF8140004A93548FEF751F901220A21A2
:103EB0003248FEF730FA07B000BD10B5FFF7BBFE81
:103EC000FFF72CFF10BD10B501212448FEF708FABA
:103ED00001220A212548FEF71EFA01212348FEF798
:103EE000FFF910BD10B5002201212048FEF713FA9A
:103EF00000211E48FEF788FC0020214908600122AD
:103F000011461A48FEF707FA10BD70B50446174867
:103F1000FEF79DFC1A49098800EB0145002605E0E3
:103F20004FF47A70B5FBF0F5701CC6B2A642F7DB11
:103F3000284670BD10B50948FEF789FC0949098873
:103F400000EB015400210548FEF75EFC0020054906
:103F50000860204610BD0000000801400004004039
:103F6000001401405800002000080040000C0040F0
:103F70004800002071000020700000200034014043
:103F80005C00002008B501214FF4B070FDF782FA03
:103F90004CF23370ADF8000018208DF803000320B8
:103FA0008DF802006946FE48FCF7B8FF4FF68070B6
:103FB000ADF8000018208DF8030003208DF80200F2
:103FC0006946F848FCF7AAFF41F20100ADF800008D
:103FD00018208DF8030003208DF802006946F2488E
:103FE000FCF79CFF08BD00B59DB001210802FDF75C
:103FF00044FA01200790002008900F20099000202B
:104000000A900B900C900D901520009001900520C7
:1040100002900020039004900590069006200E90D8
:1040200000200F90109010201190002012901490FA
:104030001390159016904FF4805017900020189010
:104040004FF48040199000201A9007A81B90CDF8DB
:1040500070D00EA8FEF76EFC01210620FEF7D2FDFF
:104060001DB000BD01124900D04A11800106C90DE2
:104070001180704701124900CC4A921C1180010640
:10408000C90D1180704710B504460B462046FFF756
:10409000E9FF1846FFF7EEFF10BD10B501460023FB
:1040A000CA0AC1F3451401F01F03500340EA84100B
:1040B00040EA430010BD30B5054600242846FFF70E
:1040C000ECFF0446C4F34F20B849891C08800C80DB
:1040D00030BDB649891C098848104FF6FF7101EAC6
:1040E0000020B249891C098840EA6100704700B588
:1040F0000346B3B90120FFF7B5FF4FF48070FFF717
:10410000B9FF0320FFF7AEFF41F23000FFF7B2FF27
:104110004FF4C870A6494880F020088000208871BC
:1041200014E00120FFF79EFF0020FFF7A3FF03200C
:10413000FFF798FF41F23800FFF79CFFF0209C4901
:1041400048804FF4C87008800120887100BD70B5A8
:1041500006460C4615469648807950BB4FF40470CD
:10416000FFF780FF3046FFF785FF40F21120FFF791
:1041700079FF2846FFF77EFF40F21220FFF772FF1B
:104180002046FFF777FF40F21320FFF76BFF18463A
:10419000FFF770FF4FF40070FFF764FF3046FFF742
:1041A00069FF40F20120FFF75DFF2046FFF762FF45
:1041B00029E040F21220FFF755FF3046FFF75AFF83
:1041C00040F21320FFF74EFF2846FFF753FF4FF44E
:1041D0000470FFF747FF2046FFF74CFF40F2112025
:1041E000FFF740FF1846FFF745FF40F20120FFF7B9
:1041F00039FF3046FFF73EFF4FF40070FFF732FF04
:104200002046FFF737FF40F20220FFF72BFF70BD7B
:1042100070B5064666484088401E83B264480088F0
:10422000401E82B200210846FFF791FF00240CE0F7
:10423000002504E03046FFF73EFF681C85B25C486D
:104240004088A842F6DC601C84B259480088A0422D
:10425000EEDC70BD10B5FFF795FEFFF7C4FE32200F
:10426000FCF7EEFC0020FFF7FDFEFFF732FF5049A0
:104270008880084681884FA003F08CF90020FFF762
:10428000F1FE0020FFF7EEFE0A20FCF7D9FC00202B
:10429000FFF7E8FE0020FFF7E5FE0020FFF7E2FE53
:1042A0000020FFF7DFFEA420FFF7DCFE0120FFF770
:1042B000E1FE0A20FCF7C4FC6020FFF7D3FE4FF4B8
:1042C0001C50FFF7D7FE0820FFF7CCFE40F6080091
:1042D000FFF7D0FE4FF44070FFF7C4FE40F2091024
:1042E000FFF7C8FE40F20130FFF7BCFE47F60A6058
:1042F000FFF7C0FE40F20230FFF7B4FE40F2047058
:10430000FFF7B8FE40F20330FFF7ACFE40F61110A5
:10431000FFF7B0FE4FF44170FFF7A4FE4FF40450D6
:10432000FFF7A8FE40F20530FFF79CFE41F20910AE
:10433000FFF7A0FE40F20630FFF794FE47F2074079
:10434000FFF798FE40F20730FFF78CFE40F60E2094
:10435000FFF790FE4FF44270FFF784FE40F6011025
:10436000FFF788FE40F20930FFF77CFE2120FFF7BF
:1043700081FE1020FFF776FE1020FFF77BFE112054
:10438000FFF770FE40F20220FFF774FE1220FFF7E5
:1043900069FE4FF44070FFF76DFE132012E000003D
:1043A000001401400018014000200140FE07006C8D
:1043B00038000020204C43442049443A25780D0A17
:1043C00000000000FFF74EFE0720FFF753FE0A2013
:1043D000FCF736FC4FF48070FFF744FE0020FFF737
:1043E00049FE40F20110FFF73DFE0720FFF742FEB5
:1043F0004FF48170FFF736FE0020FFF73BFE40F2DE
:104400000310FFF72FFE0020FFF734FE4FF420705B
:10441000FFF728FE0020FFF72DFEC820FCF710FC58
:104420004FF48070FFF71EFE4FF44C70FFF722FE32
:1044300040F20110FFF716FE40F24720FFF71AFE88
:104440003220FCF7FDFB4FF48170FFF70BFE4DF2BD
:10445000B010FFF70FFE3220FCF7F2FB40F2031022
:10446000FFF700FE4FF48050FFF704FE4FF420707A
:10447000FFF7F8FD4FF44640FFF7FCFDC820FCF7BE
:10448000DFFB0120FFF7EEFD4FF48070FFF7F2FD38
:104490000220FFF7E7FD4FF40070FFF7EBFD03206C
:1044A000FFF7E0FD41F23000FFF7E4FD0920FFF7E0
:1044B000D9FD0120FFF7DEFD0A20FFF7D3FD08201C
:1044C000FFF7D8FD0C20FFF7CDFD0020FFF7D2FD50
:1044D0000D20FFF7C7FD0020FFF7CCFD0E20FFF7F2
:1044E000C1FD3020FFF7C6FD2020FFF7BBFD0020F7
:1044F000FFF7C0FD2120FFF7B5FD0020FFF7BAFD53
:104500002920FFF7AFFD5220FFF7B4FD5020FFF741
:10451000A9FD0020FFF7AEFD5120FFF7A3FDEF201E
:10452000FFF7A8FD5220FFF79DFD0020FFF7A2FD39
:104530005320FFF797FD40F23F10FFF79BFD6120EE
:10454000FFF790FD0020FFF795FD6A20FFF78AFD39
:104550000020FFF78FFD8020FFF784FD0020FFF78C
:1045600089FD8120FFF77EFD0020FFF783FD82207B
:10457000FFF778FD5F20FFF77DFD9320FFF772FDC9
:1045800040F20750FFF776FD0720FFF76BFD4FF471
:104590008070FFF76FFD3220FCF752FB2220FFF7FF
:1045A00061FD0020FFF7A3FD0020FFF731FE10BDE5
:1045B0002DE9F04304460D4616461F46DDF81C80E3
:1045C000B44201DCBD4201DDBDE8F0833B4632462A
:1045D00029462046FFF7BBFD301B401C84B2781BE8
:1045E000401C85B20BE0A94602E04046FFF763FDA0
:1045F0005FEA0900A9F101011FFA81F9F5D1200054
:10460000A4F101018CB2EED100BFDDE72DE9F84F36
:1046100006460F4690469946DDF828B0A8EB0600FE
:10462000401C1FFA80FAA9EB0700401C80B20090E2
:104630004B46424639463046FFF789FD00240DE0DF
:10464000002507E004FB0A513BF81100FFF733FD9A
:10465000681C85B25545F5DB601C84B20098844225
:10466000EEDBBDE8F88F30B504460D462B462246FA
:1046700029462046FFF76BFDF9480088FFF71BFD30
:1046800030BD70B504460D4616462B4622462946D7
:104690002046FFF75CFD3046FFF70DFD70BD2DE9AC
:1046A000F84F05460E464FF0000AD3460020009012
:1046B000EC480088A84203DDEA484088B04202DCAA
:1046C0000020BDE8F88F33462A4631462846FFF7DA
:1046D0003EFD40F20220FFF7C5FCE3480488640277
:1046E00000880443E0480488640200880443670BA0
:1046F000C4F38518C4F34409F80240EA481040EABC
:1047000009001FFA80FA5046DBE72DE9FF4F84B01D
:1047100081468A460020039002900698A0EB090586
:104720000798A0EB0A06CDF80490CDF800A0002D64
:1047300001DD012705E00DB9002702E04FF0FF374A
:104740006D42002E02DD4FF0010806E016B94FF071
:10475000000802E04FF0FF387642B54201DD2C46FA
:1047600000E034464FF0000B21E0009A91B2019A2C
:1047700090B2FFF778FF03982844039002983044E2
:1047800002900398A04205DD0398001B0390019856
:10479000384401900298A04205DD0298001B029067
:1047A0000098404400900BF101001FFA80FB601C50
:1047B0008345DADD08B0BDE8F08F2DE9FF4F84B006
:1047C00081468A460020029083460698A0EB0905A0
:1047D0000798A0EB0A06CDF80490CDF800A0002DB4
:1047E00001DD012705E00DB9002702E04FF0FF379A
:1047F0006D42002E02DD4FF0010806E016B94FF0C1
:10480000000802E04FF0FF387642B54201DD2C4649
:1048100000E03446002003901EE0009A91B2019A15
:1048200090B2119AFFF72DFF029828440290B344EA
:104830000298A04205DD0298001B029001983844BE
:104840000190A34504DDABEB040B009840440090BD
:104850000398401C80B20390611C03988842DCDD01
:1048600008B0BDE8F08FF0B504460D46174605F1D7
:10487000010C1FFA8CF304F1010C1FFA8CF2A5F164
:10488000010C1FFA8CF1A4F1010C1FFA8CF0FFF758
:104890005EFC002604E03846FFF70DFC701CC6B233
:1048A000092EF8DB211D8AB2211F88B22B4629462A
:1048B000FFF74DFC002604E03846FFF7FCFB701CB8
:1048C000C6B2092EF8DB281D83B2281F81B222460A
:1048D0002046FFF73CFC002604E03846FFF7EBFBE0
:1048E000701CC6B2092EF8DBF0BDF0B504460D46CB
:1048F00016461F462B46324629462046FFF705FF3F
:104900003B46224629462046FFF7FFFE3B463246FD
:1049100039462046FFF7F9FE3B46324629463046E7
:10492000FFF7F3FEF0BD2DE9F04306460F46904633
:10493000002445460320A0EB48093CE07A1B91B2D5
:10494000321990B2FFF78FFE3A1B91B2721990B2F2
:10495000FFF789FE3A1991B2721990B2FFF783FE00
:104960007A1991B2321990B2FFF77DFE7A1991B29D
:10497000321B90B2FFF777FE3A1991B2721B90B2D8
:10498000FFF771FE7A1B91B2321B90B2FFF76BFEFC
:104990003A1B91B2721B90B2FFF765FE641CB9F12D
:1049A000000F03DAA000801D814404E0601B80003A
:1049B0000A3081446D1EAC42C0DDBDE8F0832DE9B4
:1049C000F84F80460F4616461C46BB462046E31766
:1049D00004EB5373DB1021464FEAE47C04EB5C7C70
:1049E0004FEAEC0CA4EBCC0CBCF1000F02D04FF062
:1049F000010C01E04FF0000C6344224604EBD27C32
:104A00004FEA6C0C03FB0CF3DBB20093A6F1200021
:104A1000C6B200256DE00C2C07D106EB4600134909
:104A200001EB800010F805902AE0102C05D1104809
:104A300000EB061010F8059022E0182C07D106EBC9
:104A4000C6000C4901EB800010F8059018E0202CFE
:104A500014D1094800EBC61010F8059010E00000D2
:104A600034000020380000200008006CDC810008C1
:104A700050860008408C00089C990008BDE8F88F1B
:104A80004FF0000A2FE009F0800030B1E3480288BF
:104A900039464046FFF7F5FD07E00A9828B9E04897
:104AA000028839464046FFF7ECFD4FEA49604FEA7D
:104AB0001069781C87B2DB484088B84200DCDDE72B
:104AC000A7EB0B00A0420AD15F4608F101001FFAD4
:104AD00080F8D4480088404500DCCFE706E00AF1C2
:104AE000010000F0FF0ABAF1080FCCDB00BF681C20
:104AF000C5B2009885428EDB00BFBFE710B5024605
:104B0000012000E050430B00A1F10104E1B2F9D112
:104B100010BD2DE9FF4F81B0074691461E460E9D00
:104B20004FF0000A002439E0301B401EC1B20A20B9
:104B3000FFF7E4FFB9FBF0F00A21B0FBF1F201FB53
:104B40001208BAF1000F16D1701EA04213DDB8F1A1
:104B5000000F0ED10020AB4605EBDB71491001FBC5
:104B60000471009088B22B4620220299FFF727FF9C
:104B700012E04FF0010A0020AB4605EBDB71491053
:104B800001FB0471009088B208F13001CAB22B46D3
:104B90000299FFF714FF00BF601CC4B2B442C3DB2C
:104BA00005B0BDE8F08F2DE9FF4F82B00646924672
:104BB0001F46DDE90F480020019000254DE0781BDD
:104BC000401EC1B20A20FFF799FFBAFBF0F00A219C
:104BD000B0FBF1F201FB1209019850BB781EA8420C
:104BE00027DDB9F1000F22D108F0800078B108F07C
:104BF0000100A34604EBDB71491001FB0561009045
:104C000088B2234630220399FFF7D9FE0EE008F060
:104C10000100A34604EBDB71491001FB0561009024
:104C200088B2234620220399FFF7C9FE13E0012032
:104C3000019008F00100A34604EBDB71491001FB71
:104C40000561009088B209F13001CAB22346039988
:104C5000FFF7B5FE00BF681CC5B2BD42AFDB06B0B2
:104C6000BDE8F08F2DE9F84704460D469046994679
:104C7000DDE9096704F0FF0A08EB04001FFA80F879
:104C800009EB05001FFA80F916E0444502DB5446A3
:104C9000A81985B24D4500DB14E0002000903A7859
:104CA000334629462046FFF78AFE304606EBD07190
:104CB00004EB61018CB27F1C38787E2802DC3878E6
:104CC0002028E2DA00BFBDE8F8872DE9F84F044656
:104CD0000F461546A346009760E0002657E006EB16
:104CE0008600C0EB8610504911F8100029788842E0
:104CF0004BD106EB8600C0EB86104B4901EB400020
:104D000040786978884240D14FF000083AE006EBDD
:104D10008600C0EB8610444901EB4000801C10F86F
:104D200008A04FF0000926E00AF08000802806D194
:104D30003A48028839462046FFF7A3FC05E0384888
:104D4000028839462046FFF79CFC4FF6FF7000EAC8
:104D50004A0A601C84B2A4EB0B00202807D15C46F1
:104D6000781C87B20098381A1D2800D1009F09F1DD
:104D7000010000F0FF09B9F1080FD5DB08F10100CF
:104D800000F0FF08B8F1740FC1DB701CC6B2142E1E
:104D9000A5DBAD1C04F1200084B2A34628780028CE
:104DA0009BD1BDE8F88F2DE9F04F80468946154626
:104DB0001E46DDF824A000270024A34609EB0600C8
:104DC000401E83B208EB0500401E82B249464046B1
:104DD000FFF7BDF905FB06F04FEA400B00BF601C72
:104DE0001AF800704FF6FF7000EA07271AF804005F
:104DF00007433846FFF75FF9A41C5C45EFDBBDE8CD
:104E0000F08F00B540F2CF1004490880FFF700FA98
:104E10004FF6FF700149088000BD000034000020FB
:104E200036000020380000201CC9000800B597B0EB
:104E300001214FF4F070FCF72DFB01210802FCF773
:104E40001CFB03208DF85A004FF48060ADF8580029
:104E500018208DF85B0016A93A48FCF75FF803208C
:104E6000ADF8580016A93848FCF758F83020ADF8CE
:104E7000580016A93548FCF751F84FF60370ADF805
:104E8000580016A93148FCF749F84FF68070ADF884
:104E9000580016A92C48FCF741F84FF23F00ADF836
:104EA000580016A92A48FCF739F83F20ADF85800F9
:104EB00016A92448FCF732F8002000900190082041
:104EC0000290002003900490059006900420079023
:104ED00000200890099010200A9000200B900D905F
:104EE0000C900E900F904FF4805010900020119075
:104EF00012901390CDF850D0CDF854D007A8FDF7FC
:104F000019FD01210420FDF77DFE17B000BD10B58D
:104F1000C1F3150106E010F8014B4FF0D0435C548B
:104F2000491C521E002AF6D110BDC1F3150106E03E
:104F30004FF0D0435B5C00F8013B491C521E002A35
:104F4000F6D17047002001400018014000140140D4
:104F5000001C014010B50446204600F0E4FA10BDE4
:104F600010B5382000F005FB10BD10B5002000F092
:104F700000FB10BD08B501214FF4C470FCF78AFA9C
:104F80004FF48050ADF8000010208DF8030003208E
:104F90008DF802006946FB48FBF7C0FF4FF48051D3
:104FA000F848FCF768F84FF4C040ADF800006946D7
:104FB000F548FBF7B3FF4FF40051F348FCF75BF8FB
:104FC00000F06EFA0120F149086008BD10B501201B
:104FD000EE490860FF20FFF7BDFF10BD10B50024AB
:104FE00000BFFF20FFF7B6FFFF2801D1002010BD52
:104FF000641C6FF07F408442F3D30120F7E710B5C3
:105000000020E2490860FFF7E9FF08B9002010BD61
:10501000FFF7DCFF0120FAE770B505464FF6FF7495
:1050200001E0601E84B2FF20FFF794FFA84201D088
:10503000002CF6D10CB9FF2070BD0020FCE770B544
:1050400004460D46FE20FFF7E7FF08B1012070BDC2
:1050500004E0FF2000F067FA2070641C2800A5F12E
:1050600001018DB2F5D1FF20FFF774FFFF20FFF79C
:1050700071FF0020EBE770B506460D46FFF7AEFF67
:1050800008B1012070BD2846FFF764FFFD2D19D03F
:10509000002404E0305D00F046FA601C84B2B4F5F0
:1050A000007FF7DBFF20FFF755FFFF20FFF752FFE0
:1050B000FF20FFF74FFF044604F01F00052801D032
:1050C0000220DFE70020DDE72DE9F04105460C4630
:1050D00017464FF00008FFF779FFFFF790FF10B178
:1050E000FF20BDE8F08145F04000FFF733FF200EC0
:1050F000FFF730FFC4F30740FFF72CFFC4F307208E
:10510000FFF728FFE0B2FFF725FF3846FFF722FF41
:105110000C2D02D1FF20FFF71DFF4FF01F0800BF2D
:10512000FF20FFF717FF064606F0800030B15FEA68
:105130000800A8F1010101F0FF08F1D13046D0E7E5
:1051400070B50546012200210A20FFF7BDFF044685
:1051500024B910212846FFF772FF0446FFF736FFF7
:105160000CB1012070BD0020FCE770B5054601229E
:1051700000210920FFF7A8FF044624B91021284682
:10518000FFF75DFF0446FFF721FF0CB1012070BD62
:105190000020FCE77FB56846FFF7E7FF10B100206D
:1051A00004B070BD9DF8000000F0C000402809D197
:1051B0009DF809009DF8081000EB0120401C84B206
:1051C000A50220E09DF8050000F00F009DF80A10F0
:1051D00000EBD1109DF8091001F0030100EB410034
:1051E000861C9DF8080080119DF8071000EB8100D7
:1051F0009DF8061001F0030100EB8120441CA6F18C
:10520000090004FA00F52846CAE7F8B5FFF7B2FE30
:10521000FFF7A6FE002504E0FF20FFF79BFE681CB9
:1052200085B20A2DF8DB142600BF9522002108461E
:10523000FFF74AFF0446012C04D03000A6F101011B
:105240008EB2F2D1002052490870012C4AD1872237
:105250004FF4D5710820FFF737FF012847D100250B
:1052600006E0FF20FFF776FE0DF80500681C85B20A
:10527000042DF6DB9DF80200012879D19DF803008A
:10528000AA2875D14FF6FE7600BF012200213720F3
:10529000FFF71AFF012291072920FFF715FF0446A7
:1052A00024B13000A6F101018EB2EED1002E5FD004
:1052B000012200213A20FFF707FF002858D10025DE
:1052C00006E0FF20FFF746FE0DF80500681C85B2DA
:1052D000042DF6DB9DF8000000F0400018B1062018
:1052E0002B49087044E004202949087040E001225D
:1052F00000213720FFF7E8FE012200212920FFF7D7
:10530000E3FE0446012C17DC0220214908704FF609
:10531000FE7600BF012200213720FFF7D5FE0122D3
:1053200000212920FFF7D0FE0446BCB13000A6F1D1
:1053300001018EB2EED111E00120154908704FF63F
:10534000FE7600BF012200211046FFF7BDFE044695
:1053500024B13000A6F101018EB2F3D12EB10122A9
:1053600051021020FFF7B0FE10B10020084908706C
:10537000FFF72CFEFFF7F9FD0548007850B100203B
:10538000F8BD0000000C014000200140B80124429B
:10539000400000200CB12046F2E7AA20F0E72DE9FA
:1053A000F04106460F4615463C480078062800D0D6
:1053B0007F02012D0CD1012239461120FFF784FE16
:1053C0000446FCB969023046FFF739FE044619E08D
:1053D000012239461220FFF777FE044600BF4FF442
:1053E00000713046FFF72BFE044606F50076681E76
:1053F000C0B2050001D0002CF1D0012200210C2008
:10540000FFF762FEFFF7E2FD2046BDE8F0812DE9DF
:10541000F04106460F46154620480078062800D081
:105420007F02012D0CD1012239461820FFF74CFED6
:1054300004466CBBFE213046FFF71DFE044627E004
:1054400016480078012809D0012200213720FFF7F3
:105450003BFE012229461720FFF736FE012239467E
:105460001920FFF731FE044694B900BFFC213046F5
:10547000FFF701FE044606F50076681EC0B205007F
:1054800001D0002CF2D0FD210020FFF7F4FD0446EE
:10549000FFF79CFD2046BDE8F081000040000020A1
:1054A00000B587B001218803FCF701F8012108202D
:1054B000FBF7F0FF4FF46040ADF8180018208DF8AE
:1054C0001B0003208DF81A0006A93348FBF726FDC0
:1054D0004FF460413048FBF7CEFD0020ADF80400EA
:1054E0004FF48270ADF806000020ADF808000220ED
:1054F000ADF80A000120ADF80C004002ADF80E0036
:105500003820ADF810000020ADF812000720ADF8EB
:10551000140001A92148FDF7EDFC01211F48FDF70A
:105520008EFD07B000BD70B5054605E0601CC4B235
:10553000C82C01DB002070BD02211848FDF703FED6
:105540000028F3D029461548FDF7AAFD002405E000
:10555000601CC4B2C82C01DB0020ECE701210F481D
:10556000FDF7F1FD0028F3D00C48FDF79BFDC0B21C
:10557000E1E710B50446094800884FF6C7710840B6
:105580000649088008460088204308800121034816
:10559000FDF755FD10BD0000000C01400038004033
:1055A000704708B5FBF708FE4FF48030FBF724FE88
:1055B000FBF761FE6049087008460078012827D192
:1055C0001020FDF70BFE0220FDF7F4FD0020FBF795
:1055D00098FE0020FBF7A7FE4FF48060FBF79AFED1
:1055E0004FF4E0114FF48030FBF76EFE0120FBF723
:1055F00077FE00BF3920FBF722FE0028FAD00220F8
:10560000FBF771FE00BFFBF777FE0828FBD101E036
:1056100000BFFEE701210807FBF749FFFFF7C0FFC6
:1056200001211020FBF736FF4FF40050ADF80000C9
:1056300002208DF8020010208DF8030069463F48D3
:10564000FBF76CFC01211020FBF724FFC020ADF814
:10565000000003208DF8020010208DF80300694639
:105660003748FBF75BFC4FF44050ADF8000069464B
:105670003448FBF753FC08BD10B50020FBF76AFE69
:105680000121C805FBF713FF10BD7047704708B52F
:1056900014208DF8000003208DF8010000208DF803
:1056A000020001208DF803006846FBF76EFB08BD81
:1056B00010B504462CB14FF400512048FBF7DDFC37
:1056C00004E04FF400511D48FBF7D5FC10BD30B588
:1056D0000B46002100BF16E00A24B4EB107F05D969
:1056E000302404EB107403F8114005E0412404EB6E
:1056F00010740A3C03F81140000100254C00641CA2
:105700001D554C1CE1B29142E6DB30BD70B50E4830
:105710000468001D0568001D0668344454B1082261
:105720000A492046FFF7D3FF0422084910312846D2
:10573000FFF7CDFF70BD0000730000200010014096
:1057400000080140000C0140E8F7FF1F7600002030
:10575000002015490860704710B5012001F0BAFC1F
:10576000124908600846006882B29821104801F08A
:1057700019FA4FF44051012001F097FA10BD70471B
:1057800010B5022001F0A6FC0A490860084600682E
:1057900082B24FF49071064801F004FA4FF4405180
:1057A000022001F082FA10BD980000209000002035
:1057B000942300209400002010B537480068374932
:1057C00008800846008800F40040354909880840F0
:1057D00008B101F02FF83148008800F480603049AA
:1057E0000988084030B14FF6FF302B4908602D4939
:1057F000486880472948008800F4005028490988F3
:10580000084018B14DF6FF7023490860234800880E
:1058100000F4805022490988084030B14EF6FF70EC
:105820001D490860002000F0B4F91C48008800F40D
:1058300000601B490988084060B11B48007810B11E
:1058400000F087F902E0022000F0A3F94FF2FF70A8
:10585000114908601148008800F400701049098857
:10586000084040B14FF6FF500B4908600F480078E0
:10587000401C0E4908700948008800F480700849EF
:105880000988084030B14FF6FF60034908600720DF
:1058900000F07FF910BD0000445C00409C00002037
:1058A00086010020E0000020700100209E00002002
:1058B00010B5FFF72BFF002087490968887200F0B8
:1058C0001FF901F087FD00208449086010BD10B564
:1058D00000208149096888727F490968C872804838
:1058E000C0797D4909684872002001F08DF94FF4B4
:1058F0000071002001F0A2F91021002001F0B7F999
:105900001821002001F071FB5821002001F061FBFB
:10591000002001F069FA734890F82C10002001F083
:10592000AAFB002001F024FA0021012001F086F9F1
:105930009821012001F059FBD821012001F049FBF9
:105940004021012001F097FB4FF44051012001F06C
:10595000ACF92021012001F08AF90021022001F098
:105960006DF94FF49071022001F03FFB4FF4B071DC
:10597000022001F02EFB4021022001F07CFB4FF4BD
:105980004051022001F091F92021022001F06FF92D
:10599000012052490860002000F09FFE01204F497D
:1059A000086010BD5048817A11B105214B4A116041
:1059B00070470420494908607047704770470146A6
:1059C00029B90120444A12681082002070474748D4
:1059D000FCE710B504464649204600F074FB10BDB4
:1059E00001460020704770B504460025062C1AD1E8
:1059F00039480068007800F07F00012813D136484C
:105A00000068407978B9344800688078222802D14B
:105A1000AFF2330512E030480068807821280DD1BC
:105A2000AFF251050AE02C480068007800F07F00D2
:105A3000212803D1032C01D1AFF27D050DB902203D
:105A400070BD2548006885610021234800684182B7
:105A50000020A8470020F3E71F480068C1782348CA
:105A600001600020704700B502461B4800680078BE
:105A700000F07F00212804D10B2A02D1FFF7ECFFB0
:105A800000BD0220FCE710B504461A49204600F08C
:105A90001AFB10BD10B504461749204600F013FB51
:105AA00010BD70B505460C480068C478042C01DDB3
:105AB000002070BD114800EBC401284600F003FB34
:105AC000F7E70246002901DD02207047002A01DDC8
:105AD0000220FAE70020F8E77C0100206C0100209A
